{
  "contractName": "ehr",
  "abi": [
    {
      "inputs": [
        {
          "internalType": "address",
          "name": "_publicAddress",
          "type": "address"
        }
      ],
      "name": "getRecord",
      "outputs": [
        {
          "components": [
            {
              "internalType": "string[]",
              "name": "Disease",
              "type": "string[]"
            },
            {
              "internalType": "string[]",
              "name": "Treatment",
              "type": "string[]"
            },
            {
              "internalType": "string[]",
              "name": "TreatmentYear",
              "type": "string[]"
            }
          ],
          "internalType": "struct ehr.patientData",
          "name": "",
          "type": "tuple"
        }
      ],
      "stateMutability": "view",
      "type": "function",
      "constant": true
    },
    {
      "inputs": [
        {
          "internalType": "address",
          "name": "_publicAddress",
          "type": "address"
        },
        {
          "internalType": "string[]",
          "name": "_disease",
          "type": "string[]"
        },
        {
          "internalType": "string[]",
          "name": "_treatment",
          "type": "string[]"
        },
        {
          "internalType": "string[]",
          "name": "_treatmentYear",
          "type": "string[]"
        }
      ],
      "name": "addRecord",
      "outputs": [],
      "stateMutability": "nonpayable",
      "type": "function"
    },
    {
      "inputs": [
        {
          "internalType": "address",
          "name": "_publicAddress",
          "type": "address"
        },
        {
          "internalType": "string[]",
          "name": "_disease",
          "type": "string[]"
        },
        {
          "internalType": "string[]",
          "name": "_treatment",
          "type": "string[]"
        },
        {
          "internalType": "string[]",
          "name": "_treatmentYear",
          "type": "string[]"
        }
      ],
      "name": "updateRecord",
      "outputs": [],
      "stateMutability": "nonpayable",
      "type": "function"
    },
    {
      "inputs": [
        {
          "internalType": "address",
          "name": "_publicAddress",
          "type": "address"
        },
        {
          "internalType": "string",
          "name": "_name",
          "type": "string"
        },
        {
          "internalType": "uint64",
          "name": "_phone",
          "type": "uint64"
        },
        {
          "internalType": "string",
          "name": "_mail",
          "type": "string"
        },
        {
          "internalType": "string",
          "name": "_residentAddress",
          "type": "string"
        }
      ],
      "name": "registerPatient",
      "outputs": [],
      "stateMutability": "nonpayable",
      "type": "function"
    },
    {
      "inputs": [
        {
          "internalType": "address",
          "name": "_publicAddress",
          "type": "address"
        },
        {
          "internalType": "string",
          "name": "_name",
          "type": "string"
        },
        {
          "internalType": "uint64",
          "name": "_phone",
          "type": "uint64"
        },
        {
          "internalType": "string",
          "name": "_mail",
          "type": "string"
        },
        {
          "internalType": "string",
          "name": "_hospitalAddress",
          "type": "string"
        }
      ],
      "name": "registerhospital",
      "outputs": [],
      "stateMutability": "nonpayable",
      "type": "function"
    },
    {
      "inputs": [
        {
          "internalType": "address",
          "name": "_publicAddress",
          "type": "address"
        },
        {
          "internalType": "string",
          "name": "_name",
          "type": "string"
        },
        {
          "internalType": "uint64",
          "name": "_phone",
          "type": "uint64"
        },
        {
          "internalType": "string",
          "name": "_mail",
          "type": "string"
        },
        {
          "internalType": "string",
          "name": "_residentAddress",
          "type": "string"
        }
      ],
      "name": "updatePatient",
      "outputs": [],
      "stateMutability": "nonpayable",
      "type": "function"
    },
    {
      "inputs": [
        {
          "internalType": "address",
          "name": "_publicAddress",
          "type": "address"
        },
        {
          "internalType": "string",
          "name": "_name",
          "type": "string"
        },
        {
          "internalType": "uint64",
          "name": "_phone",
          "type": "uint64"
        },
        {
          "internalType": "string",
          "name": "_mail",
          "type": "string"
        },
        {
          "internalType": "string",
          "name": "_hospitalAddress",
          "type": "string"
        }
      ],
      "name": "updatehospital",
      "outputs": [],
      "stateMutability": "nonpayable",
      "type": "function"
    },
    {
      "inputs": [
        {
          "internalType": "address",
          "name": "_publicAddress",
          "type": "address"
        }
      ],
      "name": "check",
      "outputs": [
        {
          "internalType": "string",
          "name": "",
          "type": "string"
        }
      ],
      "stateMutability": "view",
      "type": "function",
      "constant": true
    },
    {
      "inputs": [],
      "name": "getAllHospital",
      "outputs": [
        {
          "components": [
            {
              "internalType": "string",
              "name": "name",
              "type": "string"
            },
            {
              "internalType": "uint64",
              "name": "phone",
              "type": "uint64"
            },
            {
              "internalType": "string",
              "name": "mail",
              "type": "string"
            },
            {
              "internalType": "string",
              "name": "hospitalAddress",
              "type": "string"
            }
          ],
          "internalType": "struct ehr.hospitalDetails[]",
          "name": "",
          "type": "tuple[]"
        }
      ],
      "stateMutability": "view",
      "type": "function",
      "constant": true
    },
    {
      "inputs": [
        {
          "internalType": "address",
          "name": "_publicAddress",
          "type": "address"
        }
      ],
      "name": "getPatientDetail",
      "outputs": [
        {
          "components": [
            {
              "internalType": "string",
              "name": "name",
              "type": "string"
            },
            {
              "internalType": "uint64",
              "name": "phone",
              "type": "uint64"
            },
            {
              "internalType": "string",
              "name": "mail",
              "type": "string"
            },
            {
              "internalType": "string",
              "name": "residentAddress",
              "type": "string"
            }
          ],
          "internalType": "struct ehr.patientDetails",
          "name": "",
          "type": "tuple"
        }
      ],
      "stateMutability": "view",
      "type": "function",
      "constant": true
    },
    {
      "inputs": [
        {
          "internalType": "address",
          "name": "_publicAddress",
          "type": "address"
        }
      ],
      "name": "getHospitalDetail",
      "outputs": [
        {
          "components": [
            {
              "internalType": "string",
              "name": "name",
              "type": "string"
            },
            {
              "internalType": "uint64",
              "name": "phone",
              "type": "uint64"
            },
            {
              "internalType": "string",
              "name": "mail",
              "type": "string"
            },
            {
              "internalType": "string",
              "name": "hospitalAddress",
              "type": "string"
            }
          ],
          "internalType": "struct ehr.hospitalDetails",
          "name": "",
          "type": "tuple"
        }
      ],
      "stateMutability": "view",
      "type": "function",
      "constant": true
    }
  ],
  "bytecode": "0x608060405273b19a2670a054e9e1873d20556bf1be3da8c6a33a600160006101000a81548173ffffffffffffffffffffffffffffffffffffffff021916908373ffffffffffffffffffffffffffffffffffffffff16021790555034801561006557600080fd5b5061222a806100756000396000f3fe608060405234801561001057600080fd5b50600436106100a95760003560e01c8063924727dc11610071578063924727dc1461016457806394016d3d14610194578063c23697a8146101b0578063e319f51d146101e0578063e36f4d65146101fc578063f0d2637b14610218576100a9565b806314d63cb0146100ae5780632bc8504a146100ca5780635f5954a0146100fa578063617fba0414610118578063759a91b814610148575b600080fd5b6100c860048036038101906100c3919061177e565b610234565b005b6100e460048036038101906100df9190611839565b6102ed565b6040516100f19190611979565b60405180910390f35b61010261052e565b60405161010f9190611ace565b60405180910390f35b610132600480360381019061012d9190611839565b610775565b60405161013f9190611c10565b60405180910390f35b610162600480360381019061015d919061177e565b610a58565b005b61017e60048036038101906101799190611839565b610aec565b60405161018b9190611ca3565b60405180910390f35b6101ae60048036038101906101a99190611cf1565b610d2d565b005b6101ca60048036038101906101c59190611839565b610e12565b6040516101d79190611e0a565b60405180910390f35b6101fa60048036038101906101f59190611cf1565b61107b565b005b61021660048036038101906102119190611cf1565b611127565b005b610232600480360381019061022d9190611cf1565b6111d3565b005b6040518060600160405280848152602001838152602001828152506000808673ffffffffffffffffffffffffffffffffffffffff1673ffffffffffffffffffffffffffffffffffffffff16815260200190815260200160002060008201518160000190805190602001906102a9929190611381565b5060208201518160010190805190602001906102c6929190611381565b5060408201518160020190805190602001906102e3929190611381565b5090505050505050565b6102f56113da565b600260008373ffffffffffffffffffffffffffffffffffffffff1673ffffffffffffffffffffffffffffffffffffffff16815260200190815260200160002060405180608001604052908160008201805461034f90611e5b565b80601f016020809104026020016040519081016040528092919081815260200182805461037b90611e5b565b80156103c85780601f1061039d576101008083540402835291602001916103c8565b820191906000526020600020905b8154815290600101906020018083116103ab57829003601f168201915b505050505081526020016001820160009054906101000a900467ffffffffffffffff1667ffffffffffffffff1667ffffffffffffffff16815260200160028201805461041390611e5b565b80601f016020809104026020016040519081016040528092919081815260200182805461043f90611e5b565b801561048c5780601f106104615761010080835404028352916020019161048c565b820191906000526020600020905b81548152906001019060200180831161046f57829003601f168201915b505050505081526020016003820180546104a590611e5b565b80601f01602080910402602001604051908101604052809291908181526020018280546104d190611e5b565b801561051e5780601f106104f35761010080835404028352916020019161051e565b820191906000526020600020905b81548152906001019060200180831161050157829003601f168201915b5050505050815250509050919050565b60606004805480602002602001604051908101604052809291908181526020016000905b8282101561076c578382906000526020600020906004020160405180608001604052908160008201805461058590611e5b565b80601f01602080910402602001604051908101604052809291908181526020018280546105b190611e5b565b80156105fe5780601f106105d3576101008083540402835291602001916105fe565b820191906000526020600020905b8154815290600101906020018083116105e157829003601f168201915b505050505081526020016001820160009054906101000a900467ffffffffffffffff1667ffffffffffffffff1667ffffffffffffffff16815260200160028201805461064990611e5b565b80601f016020809104026020016040519081016040528092919081815260200182805461067590611e5b565b80156106c25780601f10610697576101008083540402835291602001916106c2565b820191906000526020600020905b8154815290600101906020018083116106a557829003601f168201915b505050505081526020016003820180546106db90611e5b565b80601f016020809104026020016040519081016040528092919081815260200182805461070790611e5b565b80156107545780601f1061072957610100808354040283529160200191610754565b820191906000526020600020905b81548152906001019060200180831161073757829003601f168201915b50505050508152505081526020019060010190610552565b50505050905090565b61077d61140c565b6000808373ffffffffffffffffffffffffffffffffffffffff1673ffffffffffffffffffffffffffffffffffffffff16815260200190815260200160002060405180606001604052908160008201805480602002602001604051908101604052809291908181526020016000905b8282101561089757838290600052602060002001805461080a90611e5b565b80601f016020809104026020016040519081016040528092919081815260200182805461083690611e5b565b80156108835780601f1061085857610100808354040283529160200191610883565b820191906000526020600020905b81548152906001019060200180831161086657829003601f168201915b5050505050815260200190600101906107eb565b50505050815260200160018201805480602002602001604051908101604052809291908181526020016000905b828210156109705783829060005260206000200180546108e390611e5b565b80601f016020809104026020016040519081016040528092919081815260200182805461090f90611e5b565b801561095c5780601f106109315761010080835404028352916020019161095c565b820191906000526020600020905b81548152906001019060200180831161093f57829003601f168201915b5050505050815260200190600101906108c4565b50505050815260200160028201805480602002602001604051908101604052809291908181526020016000905b82821015610a495783829060005260206000200180546109bc90611e5b565b80601f01602080910402602001604051908101604052809291908181526020018280546109e890611e5b565b8015610a355780601f10610a0a57610100808354040283529160200191610a35565b820191906000526020600020905b815481529060010190602001808311610a1857829003601f168201915b50505050508152602001906001019061099d565b50505050815250509050919050565b60008060008673ffffffffffffffffffffffffffffffffffffffff1673ffffffffffffffffffffffffffffffffffffffff168152602001908152602001600020905083816000019080519060200190610ab2929190611381565b5082816001019080519060200190610acb929190611381565b5081816002019080519060200190610ae4929190611381565b505050505050565b610af461142d565b600360008373ffffffffffffffffffffffffffffffffffffffff1673ffffffffffffffffffffffffffffffffffffffff168152602001908152602001600020604051806080016040529081600082018054610b4e90611e5b565b80601f0160208091040260200160405190810160405280929190818152602001828054610b7a90611e5b565b8015610bc75780601f10610b9c57610100808354040283529160200191610bc7565b820191906000526020600020905b815481529060010190602001808311610baa57829003601f168201915b505050505081526020016001820160009054906101000a900467ffffffffffffffff1667ffffffffffffffff1667ffffffffffffffff168152602001600282018054610c1290611e5b565b80601f0160208091040260200160405190810160405280929190818152602001828054610c3e90611e5b565b8015610c8b5780601f10610c6057610100808354040283529160200191610c8b565b820191906000526020600020905b815481529060010190602001808311610c6e57829003601f168201915b50505050508152602001600382018054610ca490611e5b565b80601f0160208091040260200160405190810160405280929190818152602001828054610cd090611e5b565b8015610d1d5780601f10610cf257610100808354040283529160200191610d1d565b820191906000526020600020905b815481529060010190602001808311610d0057829003601f168201915b5050505050815250509050919050565b60405180608001604052808581526020018467ffffffffffffffff16815260200183815260200182815250600260008773ffffffffffffffffffffffffffffffffffffffff1673ffffffffffffffffffffffffffffffffffffffff1681526020019081526020016000206000820151816000019081610dac9190612042565b5060208201518160010160006101000a81548167ffffffffffffffff021916908367ffffffffffffffff1602179055506040820151816002019081610df19190612042565b506060820151816003019081610e079190612042565b509050505050505050565b606060006040518060400160405280600481526020017f6e6f6e65000000000000000000000000000000000000000000000000000000008152509050600160009054906101000a900473ffffffffffffffffffffffffffffffffffffffff1673ffffffffffffffffffffffffffffffffffffffff168373ffffffffffffffffffffffffffffffffffffffff1603610edc576040518060400160405280600581526020017f61646d696e00000000000000000000000000000000000000000000000000000081525090505b604051602001610eeb90612145565b60405160208183030381529060405280519060200120600260008573ffffffffffffffffffffffffffffffffffffffff1673ffffffffffffffffffffffffffffffffffffffff168152602001908152602001600020600001604051602001610f5391906121dd565b6040516020818303038152906040528051906020012014610fa7576040518060400160405280600781526020017f70617469656e740000000000000000000000000000000000000000000000000081525090505b604051602001610fb690612145565b60405160208183030381529060405280519060200120600360008573ffffffffffffffffffffffffffffffffffffffff1673ffffffffffffffffffffffffffffffffffffffff16815260200190815260200160002060000160405160200161101e91906121dd565b6040516020818303038152906040528051906020012014611072576040518060400160405280600881526020017f686f73706974616c00000000000000000000000000000000000000000000000081525090505b80915050919050565b6000600260008773ffffffffffffffffffffffffffffffffffffffff1673ffffffffffffffffffffffffffffffffffffffff1681526020019081526020016000209050848160000190816110cf9190612042565b50838160010160006101000a81548167ffffffffffffffff021916908367ffffffffffffffff1602179055508281600201908161110c9190612042565b508181600301908161111e9190612042565b50505050505050565b6000600360008773ffffffffffffffffffffffffffffffffffffffff1673ffffffffffffffffffffffffffffffffffffffff16815260200190815260200160002090508481600001908161117b9190612042565b50838160010160006101000a81548167ffffffffffffffff021916908367ffffffffffffffff160217905550828160020190816111b89190612042565b50818160030190816111ca9190612042565b50505050505050565b60405180608001604052808581526020018467ffffffffffffffff16815260200183815260200182815250600360008773ffffffffffffffffffffffffffffffffffffffff1673ffffffffffffffffffffffffffffffffffffffff16815260200190815260200160002060008201518160000190816112529190612042565b5060208201518160010160006101000a81548167ffffffffffffffff021916908367ffffffffffffffff16021790555060408201518160020190816112979190612042565b5060608201518160030190816112ad9190612042565b50905050600460405180608001604052808681526020018567ffffffffffffffff168152602001848152602001838152509080600181540180825580915050600190039060005260206000209060040201600090919091909150600082015181600001908161131c9190612042565b5060208201518160010160006101000a81548167ffffffffffffffff021916908367ffffffffffffffff16021790555060408201518160020190816113619190612042565b5060608201518160030190816113779190612042565b5050505050505050565b8280548282559060005260206000209081019282156113c9579160200282015b828111156113c85782518290816113b89190612042565b50916020019190600101906113a1565b5b5090506113d6919061145f565b5090565b604051806080016040528060608152602001600067ffffffffffffffff16815260200160608152602001606081525090565b60405180606001604052806060815260200160608152602001606081525090565b604051806080016040528060608152602001600067ffffffffffffffff16815260200160608152602001606081525090565b5b8082111561147f57600081816114769190611483565b50600101611460565b5090565b50805461148f90611e5b565b6000825580601f106114a157506114c0565b601f0160209004906000526020600020908101906114bf91906114c3565b5b50565b5b808211156114dc5760008160009055506001016114c4565b5090565b6000604051905090565b600080fd5b600080fd5b600073ffffffffffffffffffffffffffffffffffffffff82169050919050565b600061151f826114f4565b9050919050565b61152f81611514565b811461153a57600080fd5b50565b60008135905061154c81611526565b92915050565b600080fd5b6000601f19601f8301169050919050565b7f4e487b7100000000000000000000000000000000000000000000000000000000600052604160045260246000fd5b6115a082611557565b810181811067ffffffffffffffff821117156115bf576115be611568565b5b80604052505050565b60006115d26114e0565b90506115de8282611597565b919050565b600067ffffffffffffffff8211156115fe576115fd611568565b5b602082029050602081019050919050565b600080fd5b600080fd5b600067ffffffffffffffff82111561163457611633611568565b5b61163d82611557565b9050602081019050919050565b82818337600083830152505050565b600061166c61166784611619565b6115c8565b90508281526020810184848401111561168857611687611614565b5b61169384828561164a565b509392505050565b600082601f8301126116b0576116af611552565b5b81356116c0848260208601611659565b91505092915050565b60006116dc6116d7846115e3565b6115c8565b905080838252602082019050602084028301858111156116ff576116fe61160f565b5b835b8181101561174657803567ffffffffffffffff81111561172457611723611552565b5b808601611731898261169b565b85526020850194505050602081019050611701565b5050509392505050565b600082601f83011261176557611764611552565b5b81356117758482602086016116c9565b91505092915050565b60008060008060808587031215611798576117976114ea565b5b60006117a68782880161153d565b945050602085013567ffffffffffffffff8111156117c7576117c66114ef565b5b6117d387828801611750565b935050604085013567ffffffffffffffff8111156117f4576117f36114ef565b5b61180087828801611750565b925050606085013567ffffffffffffffff811115611821576118206114ef565b5b61182d87828801611750565b91505092959194509250565b60006020828403121561184f5761184e6114ea565b5b600061185d8482850161153d565b91505092915050565b600081519050919050565b600082825260208201905092915050565b60005b838110156118a0578082015181840152602081019050611885565b60008484015250505050565b60006118b782611866565b6118c18185611871565b93506118d1818560208601611882565b6118da81611557565b840191505092915050565b600067ffffffffffffffff82169050919050565b611902816118e5565b82525050565b6000608083016000830151848203600086015261192582826118ac565b915050602083015161193a60208601826118f9565b506040830151848203604086015261195282826118ac565b9150506060830151848203606086015261196c82826118ac565b9150508091505092915050565b600060208201905081810360008301526119938184611908565b905092915050565b600081519050919050565b600082825260208201905092915050565b6000819050602082019050919050565b600060808301600083015184820360008601526119e482826118ac565b91505060208301516119f960208601826118f9565b5060408301518482036040860152611a1182826118ac565b91505060608301518482036060860152611a2b82826118ac565b9150508091505092915050565b6000611a4483836119c7565b905092915050565b6000602082019050919050565b6000611a648261199b565b611a6e81856119a6565b935083602082028501611a80856119b7565b8060005b85811015611abc5784840389528151611a9d8582611a38565b9450611aa883611a4c565b925060208a01995050600181019050611a84565b50829750879550505050505092915050565b60006020820190508181036000830152611ae88184611a59565b905092915050565b600081519050919050565b600082825260208201905092915050565b6000819050602082019050919050565b6000611b2883836118ac565b905092915050565b6000602082019050919050565b6000611b4882611af0565b611b528185611afb565b935083602082028501611b6485611b0c565b8060005b85811015611ba05784840389528151611b818582611b1c565b9450611b8c83611b30565b925060208a01995050600181019050611b68565b50829750879550505050505092915050565b60006060830160008301518482036000860152611bcf8282611b3d565b91505060208301518482036020860152611be98282611b3d565b91505060408301518482036040860152611c038282611b3d565b9150508091505092915050565b60006020820190508181036000830152611c2a8184611bb2565b905092915050565b60006080830160008301518482036000860152611c4f82826118ac565b9150506020830151611c6460208601826118f9565b5060408301518482036040860152611c7c82826118ac565b91505060608301518482036060860152611c9682826118ac565b9150508091505092915050565b60006020820190508181036000830152611cbd8184611c32565b905092915050565b611cce816118e5565b8114611cd957600080fd5b50565b600081359050611ceb81611cc5565b92915050565b600080600080600060a08688031215611d0d57611d0c6114ea565b5b6000611d1b8882890161153d565b955050602086013567ffffffffffffffff811115611d3c57611d3b6114ef565b5b611d488882890161169b565b9450506040611d5988828901611cdc565b935050606086013567ffffffffffffffff811115611d7a57611d796114ef565b5b611d868882890161169b565b925050608086013567ffffffffffffffff811115611da757611da66114ef565b5b611db38882890161169b565b9150509295509295909350565b600082825260208201905092915050565b6000611ddc82611866565b611de68185611dc0565b9350611df6818560208601611882565b611dff81611557565b840191505092915050565b60006020820190508181036000830152611e248184611dd1565b905092915050565b7f4e487b7100000000000000000000000000000000000000000000000000000000600052602260045260246000fd5b60006002820490506001821680611e7357607f821691505b602082108103611e8657611e85611e2c565b5b50919050565b60008190508160005260206000209050919050565b60006020601f8301049050919050565b600082821b905092915050565b600060088302611eee7fffffffffffffffffffffffffffffffffffffffffffffffffffffffffffffffff82611eb1565b611ef88683611eb1565b95508019841693508086168417925050509392505050565b6000819050919050565b6000819050919050565b6000611f3f611f3a611f3584611f10565b611f1a565b611f10565b9050919050565b6000819050919050565b611f5983611f24565b611f6d611f6582611f46565b848454611ebe565b825550505050565b600090565b611f82611f75565b611f8d818484611f50565b505050565b5b81811015611fb157611fa6600082611f7a565b600181019050611f93565b5050565b601f821115611ff657611fc781611e8c565b611fd084611ea1565b81016020851015611fdf578190505b611ff3611feb85611ea1565b830182611f92565b50505b505050565b600082821c905092915050565b600061201960001984600802611ffb565b1980831691505092915050565b60006120328383612008565b9150826002028217905092915050565b61204b82611866565b67ffffffffffffffff81111561206457612063611568565b5b61206e8254611e5b565b612079828285611fb5565b600060209050601f8311600181146120ac576000841561209a578287015190505b6120a48582612026565b86555061210c565b601f1984166120ba86611e8c565b60005b828110156120e2578489015182556001820191506020850194506020810190506120bd565b868310156120ff57848901516120fb601f891682612008565b8355505b6001600288020188555050505b505050505050565b600081905092915050565b50565b600061212f600083612114565b915061213a8261211f565b600082019050919050565b600061215082612122565b9150819050919050565b6000815461216781611e5b565b6121718186612114565b9450600182166000811461218c57600181146121a1576121d4565b60ff19831686528115158202860193506121d4565b6121aa85611e8c565b60005b838110156121cc578154818901526001820191506020810190506121ad565b838801955050505b50505092915050565b60006121e9828461215a565b91508190509291505056fea2646970667358221220790c928de147593e41f2479d8bb04b2ea35fd9ca29b6f231c22e8fc1b4ebd6a564736f6c63430008110033",
  "immutableReferences": {},
  "source": "// SPDX-License-Identifier: GPL-3.0\npragma solidity >=0.8.0 <=0.9.0;\n\ncontract ehr{\n    // struct patientData{\n    //     address publicAddress;\n    //     string name;\n    //     uint age;\n    //     string Disease;\n    //     string Treatment;\n    // }\n\n    // mapping (address => patientData) public record;\n\n    // function setter(address _publicAddress, string memory _name, uint _age, string memory _disease, string memory _treatment) public {\n    //     record[_publicAddress] = patientData(_publicAddress, _name, _age, _disease, _treatment);\n    // }\n\n        struct patientData{\n        string[] Disease;\n        string[] Treatment;\n        string[] TreatmentYear;\n        }\n\n        mapping (address => patientData) record;\n\n        function getRecord (address _publicAddress) public view returns(patientData memory)\n        {\n            return record[_publicAddress];\n        }\n\n        // function getDisease(address _publicAddress) public view returns(string[] memory)\n        // {\n        //     patientData storage pd = record[_publicAddress];\n        //     return pd.Disease;\n        // }\n\n        // function getTreatment(address _publicAddress) public view returns(string[] memory)\n        // {\n        //     patientData storage pd = record[_publicAddress];\n        //     return pd.Treatment;\n        // }\n\n        // function getTreatmentYear(address _publicAddress) public view returns(string[] memory)\n        // {\n        //     patientData storage pd = record[_publicAddress];\n        //     return pd.TreatmentYear;\n        // }\n\n        function addRecord(address _publicAddress, string[] memory _disease, string[] memory _treatment, string[] memory _treatmentYear) public {\n            record[_publicAddress] = patientData(_disease, _treatment, _treatmentYear);\n        }\n\n        function updateRecord(address _publicAddress, string[] memory _disease, string[] memory _treatment, string[] memory _treatmentYear) public {\n            patientData storage pd = record[_publicAddress];\n            pd.Disease = _disease;\n            pd.Treatment = _treatment;\n            pd.TreatmentYear = _treatmentYear;\n        }\n\n\n        //-----------------------------------------------------------------------------\n\n\n\n         struct patientDetails{\n        string name;\n        uint64 phone;\n        string mail;\n        string residentAddress;\n    }\n\n    struct hospitalDetails{\n        string name;\n        uint64 phone;\n        string mail;\n        string hospitalAddress;\n    }\n\n    address admin = 0xb19A2670A054E9e1873D20556BF1be3dA8C6A33a;\n    mapping (address => patientDetails) patient;\n    mapping (address => hospitalDetails) hospital;\n    hospitalDetails[] hospitals;\n\n    function registerPatient(address _publicAddress, string memory _name, uint64 _phone, string memory _mail, string memory _residentAddress) public{\n        patient[_publicAddress] = patientDetails(_name, _phone, _mail, _residentAddress);\n    }\n\n    function registerhospital(address _publicAddress,  string memory _name, uint64 _phone, string memory _mail, string memory _hospitalAddress) public{\n        hospital[_publicAddress] = hospitalDetails(_name, _phone, _mail, _hospitalAddress);\n        hospitals.push(hospitalDetails(_name, _phone, _mail, _hospitalAddress));\n    }\n\n    function updatePatient(address _publicAddress, string memory _name, uint64 _phone, string memory _mail, string memory _residentAddress) public {\n        patientDetails storage pd = patient[_publicAddress];\n        pd.name = _name;\n        pd.phone = _phone;\n        pd.mail = _mail;\n        pd.residentAddress = _residentAddress;\n    }\n\n     function updatehospital(address _publicAddress,  string memory _name, uint64 _phone, string memory _mail, string memory _hospitalAddress) public{\n        hospitalDetails storage dd = hospital[_publicAddress];\n        dd.name = _name;\n        dd.phone = _phone;\n        dd.mail = _mail;\n        dd.hospitalAddress = _hospitalAddress;\n    }\n\n    function check(address _publicAddress) public view returns(string memory)\n    {\n        string memory user = \"none\";\n        if(_publicAddress == admin)\n        {\n            user = \"admin\";\n        }\n        if(!(keccak256(abi.encodePacked((patient[_publicAddress].name))) == keccak256(abi.encodePacked((\"\")))))\n        {\n            user = \"patient\";\n        }\n        if(!(keccak256(abi.encodePacked((hospital[_publicAddress].name))) == keccak256(abi.encodePacked((\"\")))))\n        {\n            user = \"hospital\";\n        }\n        return user;\n    }\n\n    function getAllHospital() public view returns(hospitalDetails[] memory)\n    {\n        return hospitals;\n    }\n\n    function getPatientDetail(address _publicAddress) public view returns(patientDetails memory)\n    {\n        return patient[_publicAddress];\n    }\n\n     function getHospitalDetail(address _publicAddress) public view returns(hospitalDetails memory)\n    {\n        return hospital[_publicAddress];\n    }\n}",
  "sourcePath": "/Volumes/Work/blockchainTrial/Backend/contracts/ehr.sol",
  "compiler": {
    "name": "solc",
    "version": "0.8.17+commit.8df45f5f.Emscripten.clang"
  },
  "schemaVersion": "3.4.12",
  "updatedAt": "2023-03-13T13:21:29.460Z",
  "networkType": "ethereum",
  "devdoc": {
    "kind": "dev",
    "methods": {},
    "version": 1
  },
  "userdoc": {
    "kind": "user",
    "methods": {},
    "version": 1
  }
}