{
  "contractName": "records",
  "abi": [
    {
      "inputs": [
        {
          "internalType": "address",
          "name": "",
          "type": "address"
        }
      ],
      "name": "record",
      "outputs": [
        {
          "internalType": "address",
          "name": "publicAddress",
          "type": "address"
        },
        {
          "internalType": "string",
          "name": "name",
          "type": "string"
        },
        {
          "internalType": "uint256",
          "name": "age",
          "type": "uint256"
        }
      ],
      "stateMutability": "view",
      "type": "function",
      "constant": true
    },
    {
      "inputs": [
        {
          "internalType": "address",
          "name": "_publicAddress",
          "type": "address"
        }
      ],
      "name": "getName",
      "outputs": [
        {
          "internalType": "string",
          "name": "",
          "type": "string"
        }
      ],
      "stateMutability": "view",
      "type": "function",
      "constant": true
    },
    {
      "inputs": [
        {
          "internalType": "address",
          "name": "_publicAddress",
          "type": "address"
        }
      ],
      "name": "getAge",
      "outputs": [
        {
          "internalType": "uint256",
          "name": "",
          "type": "uint256"
        }
      ],
      "stateMutability": "view",
      "type": "function",
      "constant": true
    },
    {
      "inputs": [
        {
          "internalType": "address",
          "name": "_publicAddress",
          "type": "address"
        }
      ],
      "name": "getDisease",
      "outputs": [
        {
          "internalType": "string[]",
          "name": "",
          "type": "string[]"
        }
      ],
      "stateMutability": "view",
      "type": "function",
      "constant": true
    },
    {
      "inputs": [
        {
          "internalType": "address",
          "name": "_publicAddress",
          "type": "address"
        }
      ],
      "name": "getTreatment",
      "outputs": [
        {
          "internalType": "string[]",
          "name": "",
          "type": "string[]"
        }
      ],
      "stateMutability": "view",
      "type": "function",
      "constant": true
    },
    {
      "inputs": [
        {
          "internalType": "address",
          "name": "_publicAddress",
          "type": "address"
        },
        {
          "internalType": "string",
          "name": "_name",
          "type": "string"
        },
        {
          "internalType": "uint256",
          "name": "_age",
          "type": "uint256"
        },
        {
          "internalType": "string[]",
          "name": "_disease",
          "type": "string[]"
        },
        {
          "internalType": "string[]",
          "name": "_treatment",
          "type": "string[]"
        }
      ],
      "name": "addRecord",
      "outputs": [],
      "stateMutability": "nonpayable",
      "type": "function"
    },
    {
      "inputs": [
        {
          "internalType": "address",
          "name": "_publicAddress",
          "type": "address"
        },
        {
          "internalType": "string",
          "name": "_name",
          "type": "string"
        },
        {
          "internalType": "uint256",
          "name": "_age",
          "type": "uint256"
        },
        {
          "internalType": "string[]",
          "name": "_disease",
          "type": "string[]"
        },
        {
          "internalType": "string[]",
          "name": "_treatment",
          "type": "string[]"
        }
      ],
      "name": "updateRecord",
      "outputs": [],
      "stateMutability": "nonpayable",
      "type": "function"
    }
  ],
  "bytecode": "0x608060405234801561001057600080fd5b506111a8806100206000396000f3fe608060405234801561001057600080fd5b506004361061007d5760003560e01c80634aa814d91161005b5780634aa814d9146101145780635fd4b08a14610144578063a17fbb4b14610174578063fb14008a146101905761007d565b806320861b8b146100825780633465d6d5146100b257806338451598146100e4575b600080fd5b61009c600480360381019061009791906108f0565b6101ac565b6040516100a99190610a6f565b60405180910390f35b6100cc60048036038101906100c791906108f0565b6102cc565b6040516100db93929190610b03565b60405180910390f35b6100fe60048036038101906100f991906108f0565b61039e565b60405161010b9190610b41565b60405180910390f35b61012e600480360381019061012991906108f0565b6103ee565b60405161013b9190610a6f565b60405180910390f35b61015e600480360381019061015991906108f0565b61050e565b60405161016b9190610b5c565b60405180910390f35b61018e60048036038101906101899190610dc5565b6105e7565b005b6101aa60048036038101906101a59190610dc5565b61067e565b005b606060008060008473ffffffffffffffffffffffffffffffffffffffff1673ffffffffffffffffffffffffffffffffffffffff168152602001908152602001600020905080600401805480602002602001604051908101604052809291908181526020016000905b828210156102c057838290600052602060002001805461023390610ec3565b80601f016020809104026020016040519081016040528092919081815260200182805461025f90610ec3565b80156102ac5780601f10610281576101008083540402835291602001916102ac565b820191906000526020600020905b81548152906001019060200180831161028f57829003601f168201915b505050505081526020019060010190610214565b50505050915050919050565b60006020528060005260406000206000915090508060000160009054906101000a900473ffffffffffffffffffffffffffffffffffffffff169080600101805461031590610ec3565b80601f016020809104026020016040519081016040528092919081815260200182805461034190610ec3565b801561038e5780601f106103635761010080835404028352916020019161038e565b820191906000526020600020905b81548152906001019060200180831161037157829003601f168201915b5050505050908060020154905083565b6000806000808473ffffffffffffffffffffffffffffffffffffffff1673ffffffffffffffffffffffffffffffffffffffff16815260200190815260200160002090508060020154915050919050565b606060008060008473ffffffffffffffffffffffffffffffffffffffff1673ffffffffffffffffffffffffffffffffffffffff168152602001908152602001600020905080600301805480602002602001604051908101604052809291908181526020016000905b8282101561050257838290600052602060002001805461047590610ec3565b80601f01602080910402602001604051908101604052809291908181526020018280546104a190610ec3565b80156104ee5780601f106104c3576101008083540402835291602001916104ee565b820191906000526020600020905b8154815290600101906020018083116104d157829003601f168201915b505050505081526020019060010190610456565b50505050915050919050565b606060008060008473ffffffffffffffffffffffffffffffffffffffff1673ffffffffffffffffffffffffffffffffffffffff168152602001908152602001600020905080600101805461056190610ec3565b80601f016020809104026020016040519081016040528092919081815260200182805461058d90610ec3565b80156105da5780601f106105af576101008083540402835291602001916105da565b820191906000526020600020905b8154815290600101906020018083116105bd57829003601f168201915b5050505050915050919050565b60008060008773ffffffffffffffffffffffffffffffffffffffff1673ffffffffffffffffffffffffffffffffffffffff1681526020019081526020016000209050828160030190805190602001906106419291906107a4565b508181600401908051906020019061065a9291906107a4565b508481600101908161066c91906110a0565b50838160020181905550505050505050565b6040518060a001604052808673ffffffffffffffffffffffffffffffffffffffff168152602001858152602001848152602001838152602001828152506000808773ffffffffffffffffffffffffffffffffffffffff1673ffffffffffffffffffffffffffffffffffffffff16815260200190815260200160002060008201518160000160006101000a81548173ffffffffffffffffffffffffffffffffffffffff021916908373ffffffffffffffffffffffffffffffffffffffff160217905550602082015181600101908161075591906110a0565b5060408201518160020155606082015181600301908051906020019061077c9291906107a4565b5060808201518160040190805190602001906107999291906107a4565b509050505050505050565b8280548282559060005260206000209081019282156107ec579160200282015b828111156107eb5782518290816107db91906110a0565b50916020019190600101906107c4565b5b5090506107f991906107fd565b5090565b5b8082111561081d57600081816108149190610821565b506001016107fe565b5090565b50805461082d90610ec3565b6000825580601f1061083f575061085e565b601f01602090049060005260206000209081019061085d9190610861565b5b50565b5b8082111561087a576000816000905550600101610862565b5090565b6000604051905090565b600080fd5b600080fd5b600073ffffffffffffffffffffffffffffffffffffffff82169050919050565b60006108bd82610892565b9050919050565b6108cd816108b2565b81146108d857600080fd5b50565b6000813590506108ea816108c4565b92915050565b60006020828403121561090657610905610888565b5b6000610914848285016108db565b91505092915050565b600081519050919050565b600082825260208201905092915050565b6000819050602082019050919050565b600081519050919050565b600082825260208201905092915050565b60005b83811015610983578082015181840152602081019050610968565b60008484015250505050565b6000601f19601f8301169050919050565b60006109ab82610949565b6109b58185610954565b93506109c5818560208601610965565b6109ce8161098f565b840191505092915050565b60006109e583836109a0565b905092915050565b6000602082019050919050565b6000610a058261091d565b610a0f8185610928565b935083602082028501610a2185610939565b8060005b85811015610a5d5784840389528151610a3e85826109d9565b9450610a49836109ed565b925060208a01995050600181019050610a25565b50829750879550505050505092915050565b60006020820190508181036000830152610a8981846109fa565b905092915050565b610a9a816108b2565b82525050565b600082825260208201905092915050565b6000610abc82610949565b610ac68185610aa0565b9350610ad6818560208601610965565b610adf8161098f565b840191505092915050565b6000819050919050565b610afd81610aea565b82525050565b6000606082019050610b186000830186610a91565b8181036020830152610b2a8185610ab1565b9050610b396040830184610af4565b949350505050565b6000602082019050610b566000830184610af4565b92915050565b60006020820190508181036000830152610b768184610ab1565b905092915050565b600080fd5b600080fd5b7f4e487b7100000000000000000000000000000000000000000000000000000000600052604160045260246000fd5b610bc08261098f565b810181811067ffffffffffffffff82111715610bdf57610bde610b88565b5b80604052505050565b6000610bf261087e565b9050610bfe8282610bb7565b919050565b600067ffffffffffffffff821115610c1e57610c1d610b88565b5b610c278261098f565b9050602081019050919050565b82818337600083830152505050565b6000610c56610c5184610c03565b610be8565b905082815260208101848484011115610c7257610c71610b83565b5b610c7d848285610c34565b509392505050565b600082601f830112610c9a57610c99610b7e565b5b8135610caa848260208601610c43565b91505092915050565b610cbc81610aea565b8114610cc757600080fd5b50565b600081359050610cd981610cb3565b92915050565b600067ffffffffffffffff821115610cfa57610cf9610b88565b5b602082029050602081019050919050565b600080fd5b6000610d23610d1e84610cdf565b610be8565b90508083825260208201905060208402830185811115610d4657610d45610d0b565b5b835b81811015610d8d57803567ffffffffffffffff811115610d6b57610d6a610b7e565b5b808601610d788982610c85565b85526020850194505050602081019050610d48565b5050509392505050565b600082601f830112610dac57610dab610b7e565b5b8135610dbc848260208601610d10565b91505092915050565b600080600080600060a08688031215610de157610de0610888565b5b6000610def888289016108db565b955050602086013567ffffffffffffffff811115610e1057610e0f61088d565b5b610e1c88828901610c85565b9450506040610e2d88828901610cca565b935050606086013567ffffffffffffffff811115610e4e57610e4d61088d565b5b610e5a88828901610d97565b925050608086013567ffffffffffffffff811115610e7b57610e7a61088d565b5b610e8788828901610d97565b9150509295509295909350565b7f4e487b7100000000000000000000000000000000000000000000000000000000600052602260045260246000fd5b60006002820490506001821680610edb57607f821691505b602082108103610eee57610eed610e94565b5b50919050565b60008190508160005260206000209050919050565b60006020601f8301049050919050565b600082821b905092915050565b600060088302610f567fffffffffffffffffffffffffffffffffffffffffffffffffffffffffffffffff82610f19565b610f608683610f19565b95508019841693508086168417925050509392505050565b6000819050919050565b6000610f9d610f98610f9384610aea565b610f78565b610aea565b9050919050565b6000819050919050565b610fb783610f82565b610fcb610fc382610fa4565b848454610f26565b825550505050565b600090565b610fe0610fd3565b610feb818484610fae565b505050565b5b8181101561100f57611004600082610fd8565b600181019050610ff1565b5050565b601f8211156110545761102581610ef4565b61102e84610f09565b8101602085101561103d578190505b61105161104985610f09565b830182610ff0565b50505b505050565b600082821c905092915050565b600061107760001984600802611059565b1980831691505092915050565b60006110908383611066565b9150826002028217905092915050565b6110a982610949565b67ffffffffffffffff8111156110c2576110c1610b88565b5b6110cc8254610ec3565b6110d7828285611013565b600060209050601f83116001811461110a57600084156110f8578287015190505b6111028582611084565b86555061116a565b601f19841661111886610ef4565b60005b828110156111405784890151825560018201915060208501945060208101905061111b565b8683101561115d5784890151611159601f891682611066565b8355505b6001600288020188555050505b50505050505056fea26469706673582212208db2e76a3f34c089bb12a6b74db23be72e1cbb854a70652ae6e4146d1cb311d064736f6c63430008110033",
  "immutableReferences": {},
  "source": "// SPDX-License-Identifier: GPL-3.0\npragma solidity >=0.8.0 <=0.9.0;\n\ncontract records{\n    // struct patientData{\n    //     address publicAddress;\n    //     string name;\n    //     uint age;\n    //     string Disease;\n    //     string Treatment;\n    // }\n\n    // mapping (address => patientData) public record;\n\n    // function setter(address _publicAddress, string memory _name, uint _age, string memory _disease, string memory _treatment) public {\n    //     record[_publicAddress] = patientData(_publicAddress, _name, _age, _disease, _treatment);\n    // }\n\n        struct patientData{\n        address publicAddress;\n        string name;\n        uint age;\n        string[] Disease;\n        string[] Treatment;\n        }\n\n        mapping (address => patientData) public record;\n\n        function getName(address _publicAddress) public view returns(string memory)\n        {\n            patientData storage pd = record[_publicAddress];\n            return pd.name;\n        }\n\n        function getAge(address _publicAddress) public view returns(uint)\n        {\n            patientData storage pd = record[_publicAddress];\n            return pd.age;\n        }\n\n        function getDisease(address _publicAddress) public view returns(string[] memory)\n        {\n            patientData storage pd = record[_publicAddress];\n            return pd.Disease;\n        }\n\n        function getTreatment(address _publicAddress) public view returns(string[] memory)\n        {\n            patientData storage pd = record[_publicAddress];\n            return pd.Treatment;\n        }\n\n        function addRecord(address _publicAddress, string memory _name, uint _age, string[] memory _disease, string[] memory _treatment) public {\n            record[_publicAddress] = patientData(_publicAddress, _name, _age, _disease, _treatment);\n        }\n\n        function updateRecord(address _publicAddress, string memory _name, uint _age, string[] memory _disease, string[] memory _treatment) public {\n            patientData storage pd = record[_publicAddress];\n            pd.Disease = _disease;\n            pd.Treatment = _treatment;\n            pd.name = _name;\n            pd.age = _age;\n        }\n}",
  "sourcePath": "/Volumes/Work/Block Chain/Ethereum/Backend/contracts/records.sol",
  "compiler": {
    "name": "solc",
    "version": "0.8.17+commit.8df45f5f.Emscripten.clang"
  },
  "schemaVersion": "3.4.12",
  "updatedAt": "2023-03-02T06:56:29.612Z",
  "networkType": "ethereum",
  "devdoc": {
    "kind": "dev",
    "methods": {},
    "version": 1
  },
  "userdoc": {
    "kind": "user",
    "methods": {},
    "version": 1
  }
}