{
  "contractName": "records",
  "abi": [
    {
      "inputs": [
        {
          "internalType": "address",
          "name": "_publicAddress",
          "type": "address"
        }
      ],
      "name": "getDisease",
      "outputs": [
        {
          "internalType": "string[]",
          "name": "",
          "type": "string[]"
        }
      ],
      "stateMutability": "view",
      "type": "function",
      "constant": true
    },
    {
      "inputs": [
        {
          "internalType": "address",
          "name": "_publicAddress",
          "type": "address"
        }
      ],
      "name": "getTreatment",
      "outputs": [
        {
          "internalType": "string[]",
          "name": "",
          "type": "string[]"
        }
      ],
      "stateMutability": "view",
      "type": "function",
      "constant": true
    },
    {
      "inputs": [
        {
          "internalType": "address",
          "name": "_publicAddress",
          "type": "address"
        }
      ],
      "name": "getTreatmentYear",
      "outputs": [
        {
          "internalType": "string[]",
          "name": "",
          "type": "string[]"
        }
      ],
      "stateMutability": "view",
      "type": "function",
      "constant": true
    },
    {
      "inputs": [
        {
          "internalType": "address",
          "name": "_publicAddress",
          "type": "address"
        },
        {
          "internalType": "string[]",
          "name": "_disease",
          "type": "string[]"
        },
        {
          "internalType": "string[]",
          "name": "_treatment",
          "type": "string[]"
        },
        {
          "internalType": "string[]",
          "name": "_treatmentYear",
          "type": "string[]"
        }
      ],
      "name": "addRecord",
      "outputs": [],
      "stateMutability": "nonpayable",
      "type": "function"
    },
    {
      "inputs": [
        {
          "internalType": "address",
          "name": "_publicAddress",
          "type": "address"
        },
        {
          "internalType": "string[]",
          "name": "_disease",
          "type": "string[]"
        },
        {
          "internalType": "string[]",
          "name": "_treatment",
          "type": "string[]"
        },
        {
          "internalType": "string[]",
          "name": "_treatmentYear",
          "type": "string[]"
        }
      ],
      "name": "updateRecord",
      "outputs": [],
      "stateMutability": "nonpayable",
      "type": "function"
    }
  ],
  "bytecode": "0x608060405234801561001057600080fd5b50610eb2806100206000396000f3fe608060405234801561001057600080fd5b50600436106100575760003560e01c806314d63cb01461005c57806320861b8b146100785780634aa814d9146100a85780635891668b146100d8578063759a91b814610108575b600080fd5b61007660048036038101906100719190610949565b610124565b005b610092600480360381019061008d9190610a04565b6101dd565b60405161009f9190610b72565b60405180910390f35b6100c260048036038101906100bd9190610a04565b6102fd565b6040516100cf9190610b72565b60405180910390f35b6100f260048036038101906100ed9190610a04565b61041d565b6040516100ff9190610b72565b60405180910390f35b610122600480360381019061011d9190610949565b61053d565b005b6040518060600160405280848152602001838152602001828152506000808673ffffffffffffffffffffffffffffffffffffffff1673ffffffffffffffffffffffffffffffffffffffff16815260200190815260200160002060008201518160000190805190602001906101999291906105d1565b5060208201518160010190805190602001906101b69291906105d1565b5060408201518160020190805190602001906101d39291906105d1565b5090505050505050565b606060008060008473ffffffffffffffffffffffffffffffffffffffff1673ffffffffffffffffffffffffffffffffffffffff168152602001908152602001600020905080600101805480602002602001604051908101604052809291908181526020016000905b828210156102f157838290600052602060002001805461026490610bc3565b80601f016020809104026020016040519081016040528092919081815260200182805461029090610bc3565b80156102dd5780601f106102b2576101008083540402835291602001916102dd565b820191906000526020600020905b8154815290600101906020018083116102c057829003601f168201915b505050505081526020019060010190610245565b50505050915050919050565b606060008060008473ffffffffffffffffffffffffffffffffffffffff1673ffffffffffffffffffffffffffffffffffffffff168152602001908152602001600020905080600001805480602002602001604051908101604052809291908181526020016000905b8282101561041157838290600052602060002001805461038490610bc3565b80601f01602080910402602001604051908101604052809291908181526020018280546103b090610bc3565b80156103fd5780601f106103d2576101008083540402835291602001916103fd565b820191906000526020600020905b8154815290600101906020018083116103e057829003601f168201915b505050505081526020019060010190610365565b50505050915050919050565b606060008060008473ffffffffffffffffffffffffffffffffffffffff1673ffffffffffffffffffffffffffffffffffffffff168152602001908152602001600020905080600201805480602002602001604051908101604052809291908181526020016000905b828210156105315783829060005260206000200180546104a490610bc3565b80601f01602080910402602001604051908101604052809291908181526020018280546104d090610bc3565b801561051d5780601f106104f25761010080835404028352916020019161051d565b820191906000526020600020905b81548152906001019060200180831161050057829003601f168201915b505050505081526020019060010190610485565b50505050915050919050565b60008060008673ffffffffffffffffffffffffffffffffffffffff1673ffffffffffffffffffffffffffffffffffffffff1681526020019081526020016000209050838160000190805190602001906105979291906105d1565b50828160010190805190602001906105b09291906105d1565b50818160020190805190602001906105c99291906105d1565b505050505050565b828054828255906000526020600020908101928215610619579160200282015b828111156106185782518290816106089190610daa565b50916020019190600101906105f1565b5b509050610626919061062a565b5090565b5b8082111561064a5760008181610641919061064e565b5060010161062b565b5090565b50805461065a90610bc3565b6000825580601f1061066c575061068b565b601f01602090049060005260206000209081019061068a919061068e565b5b50565b5b808211156106a757600081600090555060010161068f565b5090565b6000604051905090565b600080fd5b600080fd5b600073ffffffffffffffffffffffffffffffffffffffff82169050919050565b60006106ea826106bf565b9050919050565b6106fa816106df565b811461070557600080fd5b50565b600081359050610717816106f1565b92915050565b600080fd5b6000601f19601f8301169050919050565b7f4e487b7100000000000000000000000000000000000000000000000000000000600052604160045260246000fd5b61076b82610722565b810181811067ffffffffffffffff8211171561078a57610789610733565b5b80604052505050565b600061079d6106ab565b90506107a98282610762565b919050565b600067ffffffffffffffff8211156107c9576107c8610733565b5b602082029050602081019050919050565b600080fd5b600080fd5b600067ffffffffffffffff8211156107ff576107fe610733565b5b61080882610722565b9050602081019050919050565b82818337600083830152505050565b6000610837610832846107e4565b610793565b905082815260208101848484011115610853576108526107df565b5b61085e848285610815565b509392505050565b600082601f83011261087b5761087a61071d565b5b813561088b848260208601610824565b91505092915050565b60006108a76108a2846107ae565b610793565b905080838252602082019050602084028301858111156108ca576108c96107da565b5b835b8181101561091157803567ffffffffffffffff8111156108ef576108ee61071d565b5b8086016108fc8982610866565b855260208501945050506020810190506108cc565b5050509392505050565b600082601f8301126109305761092f61071d565b5b8135610940848260208601610894565b91505092915050565b60008060008060808587031215610963576109626106b5565b5b600061097187828801610708565b945050602085013567ffffffffffffffff811115610992576109916106ba565b5b61099e8782880161091b565b935050604085013567ffffffffffffffff8111156109bf576109be6106ba565b5b6109cb8782880161091b565b925050606085013567ffffffffffffffff8111156109ec576109eb6106ba565b5b6109f88782880161091b565b91505092959194509250565b600060208284031215610a1a57610a196106b5565b5b6000610a2884828501610708565b91505092915050565b600081519050919050565b600082825260208201905092915050565b6000819050602082019050919050565b600081519050919050565b600082825260208201905092915050565b60005b83811015610a97578082015181840152602081019050610a7c565b60008484015250505050565b6000610aae82610a5d565b610ab88185610a68565b9350610ac8818560208601610a79565b610ad181610722565b840191505092915050565b6000610ae88383610aa3565b905092915050565b6000602082019050919050565b6000610b0882610a31565b610b128185610a3c565b935083602082028501610b2485610a4d565b8060005b85811015610b605784840389528151610b418582610adc565b9450610b4c83610af0565b925060208a01995050600181019050610b28565b50829750879550505050505092915050565b60006020820190508181036000830152610b8c8184610afd565b905092915050565b7f4e487b7100000000000000000000000000000000000000000000000000000000600052602260045260246000fd5b60006002820490506001821680610bdb57607f821691505b602082108103610bee57610bed610b94565b5b50919050565b60008190508160005260206000209050919050565b60006020601f8301049050919050565b600082821b905092915050565b600060088302610c567fffffffffffffffffffffffffffffffffffffffffffffffffffffffffffffffff82610c19565b610c608683610c19565b95508019841693508086168417925050509392505050565b6000819050919050565b6000819050919050565b6000610ca7610ca2610c9d84610c78565b610c82565b610c78565b9050919050565b6000819050919050565b610cc183610c8c565b610cd5610ccd82610cae565b848454610c26565b825550505050565b600090565b610cea610cdd565b610cf5818484610cb8565b505050565b5b81811015610d1957610d0e600082610ce2565b600181019050610cfb565b5050565b601f821115610d5e57610d2f81610bf4565b610d3884610c09565b81016020851015610d47578190505b610d5b610d5385610c09565b830182610cfa565b50505b505050565b600082821c905092915050565b6000610d8160001984600802610d63565b1980831691505092915050565b6000610d9a8383610d70565b9150826002028217905092915050565b610db382610a5d565b67ffffffffffffffff811115610dcc57610dcb610733565b5b610dd68254610bc3565b610de1828285610d1d565b600060209050601f831160018114610e145760008415610e02578287015190505b610e0c8582610d8e565b865550610e74565b601f198416610e2286610bf4565b60005b82811015610e4a57848901518255600182019150602085019450602081019050610e25565b86831015610e675784890151610e63601f891682610d70565b8355505b6001600288020188555050505b50505050505056fea2646970667358221220d2de1dbbb1a830b9a1c025676e80d7e8c40eb594b47a214afba19028e642e03164736f6c63430008110033",
  "immutableReferences": {},
  "source": "// SPDX-License-Identifier: GPL-3.0\npragma solidity >=0.8.0 <=0.9.0;\n\ncontract records{\n    // struct patientData{\n    //     address publicAddress;\n    //     string name;\n    //     uint age;\n    //     string Disease;\n    //     string Treatment;\n    // }\n\n    // mapping (address => patientData) public record;\n\n    // function setter(address _publicAddress, string memory _name, uint _age, string memory _disease, string memory _treatment) public {\n    //     record[_publicAddress] = patientData(_publicAddress, _name, _age, _disease, _treatment);\n    // }\n\n        struct patientData{\n        string[] Disease;\n        string[] Treatment;\n        string[] TreatmentYear;\n        }\n\n        mapping (address => patientData) record;\n\n        function getDisease(address _publicAddress) public view returns(string[] memory)\n        {\n            patientData storage pd = record[_publicAddress];\n            return pd.Disease;\n        }\n\n        function getTreatment(address _publicAddress) public view returns(string[] memory)\n        {\n            patientData storage pd = record[_publicAddress];\n            return pd.Treatment;\n        }\n\n        function getTreatmentYear(address _publicAddress) public view returns(string[] memory)\n        {\n            patientData storage pd = record[_publicAddress];\n            return pd.TreatmentYear;\n        }\n\n        function addRecord(address _publicAddress, string[] memory _disease, string[] memory _treatment, string[] memory _treatmentYear) public {\n            record[_publicAddress] = patientData(_disease, _treatment, _treatmentYear);\n        }\n\n        function updateRecord(address _publicAddress, string[] memory _disease, string[] memory _treatment, string[] memory _treatmentYear) public {\n            patientData storage pd = record[_publicAddress];\n            pd.Disease = _disease;\n            pd.Treatment = _treatment;\n            pd.TreatmentYear = _treatmentYear;\n        }\n}",
  "sourcePath": "/Volumes/Work/blockchainTrial/Backend/contracts/records.sol",
  "compiler": {
    "name": "solc",
    "version": "0.8.17+commit.8df45f5f.Emscripten.clang"
  },
  "schemaVersion": "3.4.12",
  "updatedAt": "2023-03-13T02:59:22.749Z",
  "networkType": "ethereum",
  "devdoc": {
    "kind": "dev",
    "methods": {},
    "version": 1
  },
  "userdoc": {
    "kind": "user",
    "methods": {},
    "version": 1
  }
}