{
  "contractName": "register",
  "abi": [
    {
      "inputs": [
        {
          "internalType": "address",
          "name": "_publicAddress",
          "type": "address"
        },
        {
          "internalType": "string",
          "name": "_name",
          "type": "string"
        },
        {
          "internalType": "uint64",
          "name": "_phone",
          "type": "uint64"
        },
        {
          "internalType": "string",
          "name": "_mail",
          "type": "string"
        },
        {
          "internalType": "string",
          "name": "_residentAddress",
          "type": "string"
        }
      ],
      "name": "registerPatient",
      "outputs": [],
      "stateMutability": "nonpayable",
      "type": "function"
    },
    {
      "inputs": [
        {
          "internalType": "address",
          "name": "_publicAddress",
          "type": "address"
        },
        {
          "internalType": "string",
          "name": "_name",
          "type": "string"
        },
        {
          "internalType": "uint64",
          "name": "_phone",
          "type": "uint64"
        },
        {
          "internalType": "string",
          "name": "_mail",
          "type": "string"
        },
        {
          "internalType": "string",
          "name": "_hospitalAddress",
          "type": "string"
        }
      ],
      "name": "registerhospital",
      "outputs": [],
      "stateMutability": "nonpayable",
      "type": "function"
    },
    {
      "inputs": [
        {
          "internalType": "address",
          "name": "_publicAddress",
          "type": "address"
        },
        {
          "internalType": "string",
          "name": "_name",
          "type": "string"
        },
        {
          "internalType": "uint64",
          "name": "_phone",
          "type": "uint64"
        },
        {
          "internalType": "string",
          "name": "_mail",
          "type": "string"
        },
        {
          "internalType": "string",
          "name": "_residentAddress",
          "type": "string"
        }
      ],
      "name": "updatePatient",
      "outputs": [],
      "stateMutability": "nonpayable",
      "type": "function"
    },
    {
      "inputs": [
        {
          "internalType": "address",
          "name": "_publicAddress",
          "type": "address"
        },
        {
          "internalType": "string",
          "name": "_name",
          "type": "string"
        },
        {
          "internalType": "uint64",
          "name": "_phone",
          "type": "uint64"
        },
        {
          "internalType": "string",
          "name": "_mail",
          "type": "string"
        },
        {
          "internalType": "string",
          "name": "_hospitalAddress",
          "type": "string"
        }
      ],
      "name": "updatehospital",
      "outputs": [],
      "stateMutability": "nonpayable",
      "type": "function"
    },
    {
      "inputs": [
        {
          "internalType": "address",
          "name": "_publicAddress",
          "type": "address"
        }
      ],
      "name": "check",
      "outputs": [
        {
          "internalType": "string",
          "name": "",
          "type": "string"
        }
      ],
      "stateMutability": "view",
      "type": "function"
    }
  ],
  "bytecode": "0x608060405273dff6a078eac1279823ed8189bb2ccd137bfc12e06000806101000a81548173ffffffffffffffffffffffffffffffffffffffff021916908373ffffffffffffffffffffffffffffffffffffffff16021790555034801561006457600080fd5b50610e18806100746000396000f3fe608060405234801561001057600080fd5b50600436106100575760003560e01c806394016d3d1461005c578063c23697a814610078578063e319f51d146100a8578063e36f4d65146100c4578063f0d2637b146100e0575b600080fd5b6100766004803603810190610071919061087d565b6100fc565b005b610092600480360381019061008d919061094c565b6101e1565b60405161009f91906109f8565b60405180910390f35b6100c260048036038101906100bd919061087d565b610448565b005b6100de60048036038101906100d9919061087d565b6104f4565b005b6100fa60048036038101906100f5919061087d565b6105a0565b005b60405180608001604052808581526020018467ffffffffffffffff16815260200183815260200182815250600160008773ffffffffffffffffffffffffffffffffffffffff1673ffffffffffffffffffffffffffffffffffffffff168152602001908152602001600020600082015181600001908161017b9190610c30565b5060208201518160010160006101000a81548167ffffffffffffffff021916908367ffffffffffffffff16021790555060408201518160020190816101c09190610c30565b5060608201518160030190816101d69190610c30565b509050505050505050565b606060006040518060400160405280600481526020017f6e6f6e6500000000000000000000000000000000000000000000000000000000815250905060008054906101000a900473ffffffffffffffffffffffffffffffffffffffff1673ffffffffffffffffffffffffffffffffffffffff168373ffffffffffffffffffffffffffffffffffffffff16036102a9576040518060400160405280600581526020017f61646d696e00000000000000000000000000000000000000000000000000000081525090505b6040516020016102b890610d33565b60405160208183030381529060405280519060200120600160008573ffffffffffffffffffffffffffffffffffffffff1673ffffffffffffffffffffffffffffffffffffffff1681526020019081526020016000206000016040516020016103209190610dcb565b6040516020818303038152906040528051906020012014610374576040518060400160405280600781526020017f70617469656e740000000000000000000000000000000000000000000000000081525090505b60405160200161038390610d33565b60405160208183030381529060405280519060200120600260008573ffffffffffffffffffffffffffffffffffffffff1673ffffffffffffffffffffffffffffffffffffffff1681526020019081526020016000206000016040516020016103eb9190610dcb565b604051602081830303815290604052805190602001201461043f576040518060400160405280600881526020017f686f73706974616c00000000000000000000000000000000000000000000000081525090505b80915050919050565b6000600160008773ffffffffffffffffffffffffffffffffffffffff1673ffffffffffffffffffffffffffffffffffffffff16815260200190815260200160002090508481600001908161049c9190610c30565b50838160010160006101000a81548167ffffffffffffffff021916908367ffffffffffffffff160217905550828160020190816104d99190610c30565b50818160030190816104eb9190610c30565b50505050505050565b6000600260008773ffffffffffffffffffffffffffffffffffffffff1673ffffffffffffffffffffffffffffffffffffffff1681526020019081526020016000209050848160000190816105489190610c30565b50838160010160006101000a81548167ffffffffffffffff021916908367ffffffffffffffff160217905550828160020190816105859190610c30565b50818160030190816105979190610c30565b50505050505050565b60405180608001604052808581526020018467ffffffffffffffff16815260200183815260200182815250600260008773ffffffffffffffffffffffffffffffffffffffff1673ffffffffffffffffffffffffffffffffffffffff168152602001908152602001600020600082015181600001908161061f9190610c30565b5060208201518160010160006101000a81548167ffffffffffffffff021916908367ffffffffffffffff16021790555060408201518160020190816106649190610c30565b50606082015181600301908161067a9190610c30565b509050505050505050565b6000604051905090565b600080fd5b600080fd5b600073ffffffffffffffffffffffffffffffffffffffff82169050919050565b60006106c482610699565b9050919050565b6106d4816106b9565b81146106df57600080fd5b50565b6000813590506106f1816106cb565b92915050565b600080fd5b600080fd5b6000601f19601f8301169050919050565b7f4e487b7100000000000000000000000000000000000000000000000000000000600052604160045260246000fd5b61074a82610701565b810181811067ffffffffffffffff8211171561076957610768610712565b5b80604052505050565b600061077c610685565b90506107888282610741565b919050565b600067ffffffffffffffff8211156107a8576107a7610712565b5b6107b182610701565b9050602081019050919050565b82818337600083830152505050565b60006107e06107db8461078d565b610772565b9050828152602081018484840111156107fc576107fb6106fc565b5b6108078482856107be565b509392505050565b600082601f830112610824576108236106f7565b5b81356108348482602086016107cd565b91505092915050565b600067ffffffffffffffff82169050919050565b61085a8161083d565b811461086557600080fd5b50565b60008135905061087781610851565b92915050565b600080600080600060a086880312156108995761089861068f565b5b60006108a7888289016106e2565b955050602086013567ffffffffffffffff8111156108c8576108c7610694565b5b6108d48882890161080f565b94505060406108e588828901610868565b935050606086013567ffffffffffffffff81111561090657610905610694565b5b6109128882890161080f565b925050608086013567ffffffffffffffff81111561093357610932610694565b5b61093f8882890161080f565b9150509295509295909350565b6000602082840312156109625761096161068f565b5b6000610970848285016106e2565b91505092915050565b600081519050919050565b600082825260208201905092915050565b60005b838110156109b3578082015181840152602081019050610998565b60008484015250505050565b60006109ca82610979565b6109d48185610984565b93506109e4818560208601610995565b6109ed81610701565b840191505092915050565b60006020820190508181036000830152610a1281846109bf565b905092915050565b7f4e487b7100000000000000000000000000000000000000000000000000000000600052602260045260246000fd5b60006002820490506001821680610a6157607f821691505b602082108103610a7457610a73610a1a565b5b50919050565b60008190508160005260206000209050919050565b60006020601f8301049050919050565b600082821b905092915050565b600060088302610adc7fffffffffffffffffffffffffffffffffffffffffffffffffffffffffffffffff82610a9f565b610ae68683610a9f565b95508019841693508086168417925050509392505050565b6000819050919050565b6000819050919050565b6000610b2d610b28610b2384610afe565b610b08565b610afe565b9050919050565b6000819050919050565b610b4783610b12565b610b5b610b5382610b34565b848454610aac565b825550505050565b600090565b610b70610b63565b610b7b818484610b3e565b505050565b5b81811015610b9f57610b94600082610b68565b600181019050610b81565b5050565b601f821115610be457610bb581610a7a565b610bbe84610a8f565b81016020851015610bcd578190505b610be1610bd985610a8f565b830182610b80565b50505b505050565b600082821c905092915050565b6000610c0760001984600802610be9565b1980831691505092915050565b6000610c208383610bf6565b9150826002028217905092915050565b610c3982610979565b67ffffffffffffffff811115610c5257610c51610712565b5b610c5c8254610a49565b610c67828285610ba3565b600060209050601f831160018114610c9a5760008415610c88578287015190505b610c928582610c14565b865550610cfa565b601f198416610ca886610a7a565b60005b82811015610cd057848901518255600182019150602085019450602081019050610cab565b86831015610ced5784890151610ce9601f891682610bf6565b8355505b6001600288020188555050505b505050505050565b600081905092915050565b50565b6000610d1d600083610d02565b9150610d2882610d0d565b600082019050919050565b6000610d3e82610d10565b9150819050919050565b60008154610d5581610a49565b610d5f8186610d02565b94506001821660008114610d7a5760018114610d8f57610dc2565b60ff1983168652811515820286019350610dc2565b610d9885610a7a565b60005b83811015610dba57815481890152600182019150602081019050610d9b565b838801955050505b50505092915050565b6000610dd78284610d48565b91508190509291505056fea26469706673582212201eafc5b39cd147e66b50e819b3362a7dadc0ce979decf8394d8cecc07afd55b964736f6c63430008110033",
  "immutableReferences": {},
  "source": "// SPDX-License-Identifier: GPL-3.0\r\npragma solidity >=0.8.0 <=0.9.0;\r\n\r\ncontract register{\r\n\r\n    struct patientDetails{\r\n        string name;\r\n        uint64 phone;\r\n        string mail;\r\n        string residentAddress;\r\n    }\r\n\r\n    struct hospitalDetails{\r\n        string name;\r\n        uint64 phone;\r\n        string mail;\r\n        string hospitalAddress;\r\n    }\r\n\r\n    address admin = 0xDfF6A078Eac1279823eD8189bB2ccd137bFc12e0;\r\n    mapping (address => patientDetails) patient;\r\n    mapping (address => hospitalDetails) hospital;\r\n\r\n    function registerPatient(address _publicAddress, string memory _name, uint64 _phone, string memory _mail, string memory _residentAddress) public{\r\n        patient[_publicAddress] = patientDetails(_name, _phone, _mail, _residentAddress);\r\n    }\r\n\r\n    function registerhospital(address _publicAddress,  string memory _name, uint64 _phone, string memory _mail, string memory _hospitalAddress) public{\r\n        hospital[_publicAddress] = hospitalDetails(_name, _phone, _mail, _hospitalAddress);\r\n    }\r\n\r\n    function updatePatient(address _publicAddress, string memory _name, uint64 _phone, string memory _mail, string memory _residentAddress) public {\r\n        patientDetails storage pd = patient[_publicAddress];\r\n        pd.name = _name;\r\n        pd.phone = _phone;\r\n        pd.mail = _mail;\r\n        pd.residentAddress = _residentAddress;\r\n    }\r\n\r\n     function updatehospital(address _publicAddress,  string memory _name, uint64 _phone, string memory _mail, string memory _hospitalAddress) public{\r\n        hospitalDetails storage dd = hospital[_publicAddress];\r\n        dd.name = _name;\r\n        dd.phone = _phone;\r\n        dd.mail = _mail;\r\n        dd.hospitalAddress = _hospitalAddress;\r\n    }\r\n\r\n    function check(address _publicAddress) public view returns(string memory)\r\n    {\r\n        string memory user = \"none\";\r\n        if(_publicAddress == admin)\r\n        {\r\n            user = \"admin\";\r\n        }\r\n        if(!(keccak256(abi.encodePacked((patient[_publicAddress].name))) == keccak256(abi.encodePacked((\"\")))))\r\n        {\r\n            user = \"patient\";\r\n        }\r\n        if(!(keccak256(abi.encodePacked((hospital[_publicAddress].name))) == keccak256(abi.encodePacked((\"\")))))\r\n        {\r\n            user = \"hospital\";\r\n        }\r\n        return user;\r\n    }\r\n}",
  "sourcePath": "D:\\Blockchain\\blockchainTrial\\Backend\\contracts\\register.sol",
  "compiler": {
    "name": "solc",
    "version": "0.8.17+commit.8df45f5f.Emscripten.clang"
  },
  "schemaVersion": "3.4.12",
  "updatedAt": "2023-03-10T06:31:56.410Z",
  "devdoc": {
    "kind": "dev",
    "methods": {},
    "version": 1
  },
  "userdoc": {
    "kind": "user",
    "methods": {},
    "version": 1
  }
}