{
  "contractName": "register",
  "abi": [
    {
      "inputs": [
        {
          "internalType": "address",
          "name": "_publicAddress",
          "type": "address"
        },
        {
          "internalType": "string",
          "name": "_name",
          "type": "string"
        },
        {
          "internalType": "uint64",
          "name": "_phone",
          "type": "uint64"
        },
        {
          "internalType": "string",
          "name": "_mail",
          "type": "string"
        },
        {
          "internalType": "string",
          "name": "_residentAddress",
          "type": "string"
        }
      ],
      "name": "registerPatient",
      "outputs": [],
      "stateMutability": "nonpayable",
      "type": "function"
    },
    {
      "inputs": [
        {
          "internalType": "address",
          "name": "_publicAddress",
          "type": "address"
        },
        {
          "internalType": "string",
          "name": "_name",
          "type": "string"
        },
        {
          "internalType": "uint64",
          "name": "_phone",
          "type": "uint64"
        },
        {
          "internalType": "string",
          "name": "_mail",
          "type": "string"
        },
        {
          "internalType": "string",
          "name": "_hospitalAddress",
          "type": "string"
        }
      ],
      "name": "registerhospital",
      "outputs": [],
      "stateMutability": "nonpayable",
      "type": "function"
    },
    {
      "inputs": [
        {
          "internalType": "address",
          "name": "_publicAddress",
          "type": "address"
        },
        {
          "internalType": "string",
          "name": "_name",
          "type": "string"
        },
        {
          "internalType": "uint64",
          "name": "_phone",
          "type": "uint64"
        },
        {
          "internalType": "string",
          "name": "_mail",
          "type": "string"
        },
        {
          "internalType": "string",
          "name": "_residentAddress",
          "type": "string"
        }
      ],
      "name": "updatePatient",
      "outputs": [],
      "stateMutability": "nonpayable",
      "type": "function"
    },
    {
      "inputs": [
        {
          "internalType": "address",
          "name": "_publicAddress",
          "type": "address"
        },
        {
          "internalType": "string",
          "name": "_name",
          "type": "string"
        },
        {
          "internalType": "uint64",
          "name": "_phone",
          "type": "uint64"
        },
        {
          "internalType": "string",
          "name": "_mail",
          "type": "string"
        },
        {
          "internalType": "string",
          "name": "_hospitalAddress",
          "type": "string"
        }
      ],
      "name": "updatehospital",
      "outputs": [],
      "stateMutability": "nonpayable",
      "type": "function"
    },
    {
      "inputs": [
        {
          "internalType": "address",
          "name": "_publicAddress",
          "type": "address"
        }
      ],
      "name": "check",
      "outputs": [
        {
          "internalType": "string",
          "name": "",
          "type": "string"
        }
      ],
      "stateMutability": "view",
      "type": "function"
    },
    {
      "inputs": [],
      "name": "getAllHospital",
      "outputs": [
        {
          "components": [
            {
              "internalType": "string",
              "name": "name",
              "type": "string"
            },
            {
              "internalType": "uint64",
              "name": "phone",
              "type": "uint64"
            },
            {
              "internalType": "string",
              "name": "mail",
              "type": "string"
            },
            {
              "internalType": "string",
              "name": "hospitalAddress",
              "type": "string"
            }
          ],
          "internalType": "struct register.hospitalDetails[]",
          "name": "",
          "type": "tuple[]"
        }
      ],
      "stateMutability": "view",
      "type": "function"
    },
    {
      "inputs": [
        {
          "internalType": "address",
          "name": "_publicAddress",
          "type": "address"
        }
      ],
      "name": "getPatientDetail",
      "outputs": [
        {
          "components": [
            {
              "internalType": "string",
              "name": "name",
              "type": "string"
            },
            {
              "internalType": "uint64",
              "name": "phone",
              "type": "uint64"
            },
            {
              "internalType": "string",
              "name": "mail",
              "type": "string"
            },
            {
              "internalType": "string",
              "name": "residentAddress",
              "type": "string"
            }
          ],
          "internalType": "struct register.patientDetails",
          "name": "",
          "type": "tuple"
        }
      ],
      "stateMutability": "view",
      "type": "function"
    },
    {
      "inputs": [
        {
          "internalType": "address",
          "name": "_publicAddress",
          "type": "address"
        }
      ],
      "name": "getHospitalDetail",
      "outputs": [
        {
          "components": [
            {
              "internalType": "string",
              "name": "name",
              "type": "string"
            },
            {
              "internalType": "uint64",
              "name": "phone",
              "type": "uint64"
            },
            {
              "internalType": "string",
              "name": "mail",
              "type": "string"
            },
            {
              "internalType": "string",
              "name": "hospitalAddress",
              "type": "string"
            }
          ],
          "internalType": "struct register.hospitalDetails",
          "name": "",
          "type": "tuple"
        }
      ],
      "stateMutability": "view",
      "type": "function"
    }
  ],
  "bytecode": "0x6080604052730c94a7382420e02cf69b2fe7e0cb24d0fa79ccdf6000806101000a81548173ffffffffffffffffffffffffffffffffffffffff021916908373ffffffffffffffffffffffffffffffffffffffff16021790555034801561006457600080fd5b50611991806100746000396000f3fe608060405234801561001057600080fd5b50600436106100885760003560e01c8063c23697a81161005b578063c23697a814610127578063e319f51d14610157578063e36f4d6514610173578063f0d2637b1461018f57610088565b80632bc8504a1461008d5780635f5954a0146100bd578063924727dc146100db57806394016d3d1461010b575b600080fd5b6100a760048036038101906100a29190610f9c565b6101ab565b6040516100b491906110ed565b60405180910390f35b6100c56103ec565b6040516100d29190611242565b60405180910390f35b6100f560048036038101906100f09190610f9c565b610633565b60405161010291906112d5565b60405180910390f35b61012560048036038101906101209190611458565b610874565b005b610141600480360381019061013c9190610f9c565b610959565b60405161014e9190611571565b60405180910390f35b610171600480360381019061016c9190611458565b610bc0565b005b61018d60048036038101906101889190611458565b610c6c565b005b6101a960048036038101906101a49190611458565b610d18565b005b6101b3610ec6565b600160008373ffffffffffffffffffffffffffffffffffffffff1673ffffffffffffffffffffffffffffffffffffffff16815260200190815260200160002060405180608001604052908160008201805461020d906115c2565b80601f0160208091040260200160405190810160405280929190818152602001828054610239906115c2565b80156102865780601f1061025b57610100808354040283529160200191610286565b820191906000526020600020905b81548152906001019060200180831161026957829003601f168201915b505050505081526020016001820160009054906101000a900467ffffffffffffffff1667ffffffffffffffff1667ffffffffffffffff1681526020016002820180546102d1906115c2565b80601f01602080910402602001604051908101604052809291908181526020018280546102fd906115c2565b801561034a5780601f1061031f5761010080835404028352916020019161034a565b820191906000526020600020905b81548152906001019060200180831161032d57829003601f168201915b50505050508152602001600382018054610363906115c2565b80601f016020809104026020016040519081016040528092919081815260200182805461038f906115c2565b80156103dc5780601f106103b1576101008083540402835291602001916103dc565b820191906000526020600020905b8154815290600101906020018083116103bf57829003601f168201915b5050505050815250509050919050565b60606003805480602002602001604051908101604052809291908181526020016000905b8282101561062a5783829060005260206000209060040201604051806080016040529081600082018054610443906115c2565b80601f016020809104026020016040519081016040528092919081815260200182805461046f906115c2565b80156104bc5780601f10610491576101008083540402835291602001916104bc565b820191906000526020600020905b81548152906001019060200180831161049f57829003601f168201915b505050505081526020016001820160009054906101000a900467ffffffffffffffff1667ffffffffffffffff1667ffffffffffffffff168152602001600282018054610507906115c2565b80601f0160208091040260200160405190810160405280929190818152602001828054610533906115c2565b80156105805780601f1061055557610100808354040283529160200191610580565b820191906000526020600020905b81548152906001019060200180831161056357829003601f168201915b50505050508152602001600382018054610599906115c2565b80601f01602080910402602001604051908101604052809291908181526020018280546105c5906115c2565b80156106125780601f106105e757610100808354040283529160200191610612565b820191906000526020600020905b8154815290600101906020018083116105f557829003601f168201915b50505050508152505081526020019060010190610410565b50505050905090565b61063b610ef8565b600260008373ffffffffffffffffffffffffffffffffffffffff1673ffffffffffffffffffffffffffffffffffffffff168152602001908152602001600020604051806080016040529081600082018054610695906115c2565b80601f01602080910402602001604051908101604052809291908181526020018280546106c1906115c2565b801561070e5780601f106106e35761010080835404028352916020019161070e565b820191906000526020600020905b8154815290600101906020018083116106f157829003601f168201915b505050505081526020016001820160009054906101000a900467ffffffffffffffff1667ffffffffffffffff1667ffffffffffffffff168152602001600282018054610759906115c2565b80601f0160208091040260200160405190810160405280929190818152602001828054610785906115c2565b80156107d25780601f106107a7576101008083540402835291602001916107d2565b820191906000526020600020905b8154815290600101906020018083116107b557829003601f168201915b505050505081526020016003820180546107eb906115c2565b80601f0160208091040260200160405190810160405280929190818152602001828054610817906115c2565b80156108645780601f1061083957610100808354040283529160200191610864565b820191906000526020600020905b81548152906001019060200180831161084757829003601f168201915b5050505050815250509050919050565b60405180608001604052808581526020018467ffffffffffffffff16815260200183815260200182815250600160008773ffffffffffffffffffffffffffffffffffffffff1673ffffffffffffffffffffffffffffffffffffffff16815260200190815260200160002060008201518160000190816108f391906117a9565b5060208201518160010160006101000a81548167ffffffffffffffff021916908367ffffffffffffffff160217905550604082015181600201908161093891906117a9565b50606082015181600301908161094e91906117a9565b509050505050505050565b606060006040518060400160405280600481526020017f6e6f6e6500000000000000000000000000000000000000000000000000000000815250905060008054906101000a900473ffffffffffffffffffffffffffffffffffffffff1673ffffffffffffffffffffffffffffffffffffffff168373ffffffffffffffffffffffffffffffffffffffff1603610a21576040518060400160405280600581526020017f61646d696e00000000000000000000000000000000000000000000000000000081525090505b604051602001610a30906118ac565b60405160208183030381529060405280519060200120600160008573ffffffffffffffffffffffffffffffffffffffff1673ffffffffffffffffffffffffffffffffffffffff168152602001908152602001600020600001604051602001610a989190611944565b6040516020818303038152906040528051906020012014610aec576040518060400160405280600781526020017f70617469656e740000000000000000000000000000000000000000000000000081525090505b604051602001610afb906118ac565b60405160208183030381529060405280519060200120600260008573ffffffffffffffffffffffffffffffffffffffff1673ffffffffffffffffffffffffffffffffffffffff168152602001908152602001600020600001604051602001610b639190611944565b6040516020818303038152906040528051906020012014610bb7576040518060400160405280600881526020017f686f73706974616c00000000000000000000000000000000000000000000000081525090505b80915050919050565b6000600160008773ffffffffffffffffffffffffffffffffffffffff1673ffffffffffffffffffffffffffffffffffffffff168152602001908152602001600020905084816000019081610c1491906117a9565b50838160010160006101000a81548167ffffffffffffffff021916908367ffffffffffffffff16021790555082816002019081610c5191906117a9565b5081816003019081610c6391906117a9565b50505050505050565b6000600260008773ffffffffffffffffffffffffffffffffffffffff1673ffffffffffffffffffffffffffffffffffffffff168152602001908152602001600020905084816000019081610cc091906117a9565b50838160010160006101000a81548167ffffffffffffffff021916908367ffffffffffffffff16021790555082816002019081610cfd91906117a9565b5081816003019081610d0f91906117a9565b50505050505050565b60405180608001604052808581526020018467ffffffffffffffff16815260200183815260200182815250600260008773ffffffffffffffffffffffffffffffffffffffff1673ffffffffffffffffffffffffffffffffffffffff1681526020019081526020016000206000820151816000019081610d9791906117a9565b5060208201518160010160006101000a81548167ffffffffffffffff021916908367ffffffffffffffff1602179055506040820151816002019081610ddc91906117a9565b506060820151816003019081610df291906117a9565b50905050600360405180608001604052808681526020018567ffffffffffffffff1681526020018481526020018381525090806001815401808255809150506001900390600052602060002090600402016000909190919091506000820151816000019081610e6191906117a9565b5060208201518160010160006101000a81548167ffffffffffffffff021916908367ffffffffffffffff1602179055506040820151816002019081610ea691906117a9565b506060820151816003019081610ebc91906117a9565b5050505050505050565b604051806080016040528060608152602001600067ffffffffffffffff16815260200160608152602001606081525090565b604051806080016040528060608152602001600067ffffffffffffffff16815260200160608152602001606081525090565b6000604051905090565b600080fd5b600080fd5b600073ffffffffffffffffffffffffffffffffffffffff82169050919050565b6000610f6982610f3e565b9050919050565b610f7981610f5e565b8114610f8457600080fd5b50565b600081359050610f9681610f70565b92915050565b600060208284031215610fb257610fb1610f34565b5b6000610fc084828501610f87565b91505092915050565b600081519050919050565b600082825260208201905092915050565b60005b83811015611003578082015181840152602081019050610fe8565b60008484015250505050565b6000601f19601f8301169050919050565b600061102b82610fc9565b6110358185610fd4565b9350611045818560208601610fe5565b61104e8161100f565b840191505092915050565b600067ffffffffffffffff82169050919050565b61107681611059565b82525050565b600060808301600083015184820360008601526110998282611020565b91505060208301516110ae602086018261106d565b50604083015184820360408601526110c68282611020565b915050606083015184820360608601526110e08282611020565b9150508091505092915050565b60006020820190508181036000830152611107818461107c565b905092915050565b600081519050919050565b600082825260208201905092915050565b6000819050602082019050919050565b600060808301600083015184820360008601526111588282611020565b915050602083015161116d602086018261106d565b50604083015184820360408601526111858282611020565b9150506060830151848203606086015261119f8282611020565b9150508091505092915050565b60006111b8838361113b565b905092915050565b6000602082019050919050565b60006111d88261110f565b6111e2818561111a565b9350836020820285016111f48561112b565b8060005b85811015611230578484038952815161121185826111ac565b945061121c836111c0565b925060208a019950506001810190506111f8565b50829750879550505050505092915050565b6000602082019050818103600083015261125c81846111cd565b905092915050565b600060808301600083015184820360008601526112818282611020565b9150506020830151611296602086018261106d565b50604083015184820360408601526112ae8282611020565b915050606083015184820360608601526112c88282611020565b9150508091505092915050565b600060208201905081810360008301526112ef8184611264565b905092915050565b600080fd5b600080fd5b7f4e487b7100000000000000000000000000000000000000000000000000000000600052604160045260246000fd5b6113398261100f565b810181811067ffffffffffffffff8211171561135857611357611301565b5b80604052505050565b600061136b610f2a565b90506113778282611330565b919050565b600067ffffffffffffffff82111561139757611396611301565b5b6113a08261100f565b9050602081019050919050565b82818337600083830152505050565b60006113cf6113ca8461137c565b611361565b9050828152602081018484840111156113eb576113ea6112fc565b5b6113f68482856113ad565b509392505050565b600082601f830112611413576114126112f7565b5b81356114238482602086016113bc565b91505092915050565b61143581611059565b811461144057600080fd5b50565b6000813590506114528161142c565b92915050565b600080600080600060a0868803121561147457611473610f34565b5b600061148288828901610f87565b955050602086013567ffffffffffffffff8111156114a3576114a2610f39565b5b6114af888289016113fe565b94505060406114c088828901611443565b935050606086013567ffffffffffffffff8111156114e1576114e0610f39565b5b6114ed888289016113fe565b925050608086013567ffffffffffffffff81111561150e5761150d610f39565b5b61151a888289016113fe565b9150509295509295909350565b600082825260208201905092915050565b600061154382610fc9565b61154d8185611527565b935061155d818560208601610fe5565b6115668161100f565b840191505092915050565b6000602082019050818103600083015261158b8184611538565b905092915050565b7f4e487b7100000000000000000000000000000000000000000000000000000000600052602260045260246000fd5b600060028204905060018216806115da57607f821691505b6020821081036115ed576115ec611593565b5b50919050565b60008190508160005260206000209050919050565b60006020601f8301049050919050565b600082821b905092915050565b6000600883026116557fffffffffffffffffffffffffffffffffffffffffffffffffffffffffffffffff82611618565b61165f8683611618565b95508019841693508086168417925050509392505050565b6000819050919050565b6000819050919050565b60006116a66116a161169c84611677565b611681565b611677565b9050919050565b6000819050919050565b6116c08361168b565b6116d46116cc826116ad565b848454611625565b825550505050565b600090565b6116e96116dc565b6116f48184846116b7565b505050565b5b818110156117185761170d6000826116e1565b6001810190506116fa565b5050565b601f82111561175d5761172e816115f3565b61173784611608565b81016020851015611746578190505b61175a61175285611608565b8301826116f9565b50505b505050565b600082821c905092915050565b600061178060001984600802611762565b1980831691505092915050565b6000611799838361176f565b9150826002028217905092915050565b6117b282610fc9565b67ffffffffffffffff8111156117cb576117ca611301565b5b6117d582546115c2565b6117e082828561171c565b600060209050601f8311600181146118135760008415611801578287015190505b61180b858261178d565b865550611873565b601f198416611821866115f3565b60005b8281101561184957848901518255600182019150602085019450602081019050611824565b868310156118665784890151611862601f89168261176f565b8355505b6001600288020188555050505b505050505050565b600081905092915050565b50565b600061189660008361187b565b91506118a182611886565b600082019050919050565b60006118b782611889565b9150819050919050565b600081546118ce816115c2565b6118d8818661187b565b945060018216600081146118f357600181146119085761193b565b60ff198316865281151582028601935061193b565b611911856115f3565b60005b8381101561193357815481890152600182019150602081019050611914565b838801955050505b50505092915050565b600061195082846118c1565b91508190509291505056fea26469706673582212207a96b0a56223dbdd5293a55a021997825c8a218967dc0e27c631c24fa4e083db64736f6c63430008110033",
  "immutableReferences": {},
  "source": "// SPDX-License-Identifier: GPL-3.0\r\npragma solidity >=0.8.0 <=0.9.0;\r\n\r\ncontract register{\r\n\r\n    struct patientDetails{\r\n        string name;\r\n        uint64 phone;\r\n        string mail;\r\n        string residentAddress;\r\n    }\r\n\r\n    struct hospitalDetails{\r\n        string name;\r\n        uint64 phone;\r\n        string mail;\r\n        string hospitalAddress;\r\n    }\r\n\r\n    address admin = 0x0C94a7382420E02cF69b2FE7e0cB24d0fa79CcDF;\r\n    mapping (address => patientDetails) patient;\r\n    mapping (address => hospitalDetails) hospital;\r\n    hospitalDetails[] hospitals;\r\n\r\n    function registerPatient(address _publicAddress, string memory _name, uint64 _phone, string memory _mail, string memory _residentAddress) public{\r\n        patient[_publicAddress] = patientDetails(_name, _phone, _mail, _residentAddress);\r\n    }\r\n\r\n    function registerhospital(address _publicAddress,  string memory _name, uint64 _phone, string memory _mail, string memory _hospitalAddress) public{\r\n        hospital[_publicAddress] = hospitalDetails(_name, _phone, _mail, _hospitalAddress);\r\n        hospitals.push(hospitalDetails(_name, _phone, _mail, _hospitalAddress));\r\n    }\r\n\r\n    function updatePatient(address _publicAddress, string memory _name, uint64 _phone, string memory _mail, string memory _residentAddress) public {\r\n        patientDetails storage pd = patient[_publicAddress];\r\n        pd.name = _name;\r\n        pd.phone = _phone;\r\n        pd.mail = _mail;\r\n        pd.residentAddress = _residentAddress;\r\n    }\r\n\r\n     function updatehospital(address _publicAddress,  string memory _name, uint64 _phone, string memory _mail, string memory _hospitalAddress) public{\r\n        hospitalDetails storage dd = hospital[_publicAddress];\r\n        dd.name = _name;\r\n        dd.phone = _phone;\r\n        dd.mail = _mail;\r\n        dd.hospitalAddress = _hospitalAddress;\r\n    }\r\n\r\n    function check(address _publicAddress) public view returns(string memory)\r\n    {\r\n        string memory user = \"none\";\r\n        if(_publicAddress == admin)\r\n        {\r\n            user = \"admin\";\r\n        }\r\n        if(!(keccak256(abi.encodePacked((patient[_publicAddress].name))) == keccak256(abi.encodePacked((\"\")))))\r\n        {\r\n            user = \"patient\";\r\n        }\r\n        if(!(keccak256(abi.encodePacked((hospital[_publicAddress].name))) == keccak256(abi.encodePacked((\"\")))))\r\n        {\r\n            user = \"hospital\";\r\n        }\r\n        return user;\r\n    }\r\n\r\n    function getAllHospital() public view returns(hospitalDetails[] memory)\r\n    {\r\n        return hospitals;\r\n    }\r\n\r\n    function getPatientDetail(address _publicAddress) public view returns(patientDetails memory)\r\n    {\r\n        return patient[_publicAddress];\r\n    }\r\n\r\n     function getHospitalDetail(address _publicAddress) public view returns(hospitalDetails memory)\r\n    {\r\n        return hospital[_publicAddress];\r\n    }\r\n}",
  "sourcePath": "D:\\Blockchain\\blockchainTrial\\Backend\\contracts\\register.sol",
  "compiler": {
    "name": "solc",
    "version": "0.8.17+commit.8df45f5f.Emscripten.clang"
  },
  "schemaVersion": "3.4.12",
  "updatedAt": "2023-03-13T03:39:27.944Z",
  "devdoc": {
    "kind": "dev",
    "methods": {},
    "version": 1
  },
  "userdoc": {
    "kind": "user",
    "methods": {},
    "version": 1
  }
}