{
  "contractName": "register",
  "abi": [
    {
      "inputs": [
        {
          "internalType": "address",
          "name": "_publicAddress",
          "type": "address"
        },
        {
          "internalType": "string",
          "name": "_name",
          "type": "string"
        },
        {
          "internalType": "uint64",
          "name": "_phone",
          "type": "uint64"
        },
        {
          "internalType": "string",
          "name": "_mail",
          "type": "string"
        },
        {
          "internalType": "string",
          "name": "_residentAddress",
          "type": "string"
        }
      ],
      "name": "registerPatient",
      "outputs": [],
      "stateMutability": "nonpayable",
      "type": "function"
    },
    {
      "inputs": [
        {
          "internalType": "address",
          "name": "_publicAddress",
          "type": "address"
        },
        {
          "internalType": "string",
          "name": "_name",
          "type": "string"
        },
        {
          "internalType": "uint64",
          "name": "_phone",
          "type": "uint64"
        },
        {
          "internalType": "string",
          "name": "_mail",
          "type": "string"
        },
        {
          "internalType": "string",
          "name": "_hospitalAddress",
          "type": "string"
        }
      ],
      "name": "registerhospital",
      "outputs": [],
      "stateMutability": "nonpayable",
      "type": "function"
    },
    {
      "inputs": [
        {
          "internalType": "address",
          "name": "_publicAddress",
          "type": "address"
        },
        {
          "internalType": "string",
          "name": "_name",
          "type": "string"
        },
        {
          "internalType": "uint64",
          "name": "_phone",
          "type": "uint64"
        },
        {
          "internalType": "string",
          "name": "_mail",
          "type": "string"
        },
        {
          "internalType": "string",
          "name": "_residentAddress",
          "type": "string"
        }
      ],
      "name": "updatePatient",
      "outputs": [],
      "stateMutability": "nonpayable",
      "type": "function"
    },
    {
      "inputs": [
        {
          "internalType": "address",
          "name": "_publicAddress",
          "type": "address"
        },
        {
          "internalType": "string",
          "name": "_name",
          "type": "string"
        },
        {
          "internalType": "uint64",
          "name": "_phone",
          "type": "uint64"
        },
        {
          "internalType": "string",
          "name": "_mail",
          "type": "string"
        },
        {
          "internalType": "string",
          "name": "_hospitalAddress",
          "type": "string"
        }
      ],
      "name": "updatehospital",
      "outputs": [],
      "stateMutability": "nonpayable",
      "type": "function"
    },
    {
      "inputs": [
        {
          "internalType": "address",
          "name": "_publicAddress",
          "type": "address"
        }
      ],
      "name": "check",
      "outputs": [
        {
          "internalType": "string",
          "name": "",
          "type": "string"
        }
      ],
      "stateMutability": "view",
      "type": "function",
      "constant": true
    },
    {
      "inputs": [],
      "name": "getAllHospital",
      "outputs": [
        {
          "internalType": "string[][]",
          "name": "",
          "type": "string[][]"
        }
      ],
      "stateMutability": "view",
      "type": "function",
      "constant": true
    },
    {
      "inputs": [
        {
          "internalType": "address",
          "name": "_publicAddress",
          "type": "address"
        }
      ],
      "name": "getPatientDetail",
      "outputs": [
        {
          "components": [
            {
              "internalType": "string",
              "name": "name",
              "type": "string"
            },
            {
              "internalType": "uint64",
              "name": "phone",
              "type": "uint64"
            },
            {
              "internalType": "string",
              "name": "mail",
              "type": "string"
            },
            {
              "internalType": "string",
              "name": "residentAddress",
              "type": "string"
            }
          ],
          "internalType": "struct register.patientDetails",
          "name": "",
          "type": "tuple"
        }
      ],
      "stateMutability": "view",
      "type": "function",
      "constant": true
    },
    {
      "inputs": [
        {
          "internalType": "address",
          "name": "_publicAddress",
          "type": "address"
        }
      ],
      "name": "getHospitalDetail",
      "outputs": [
        {
          "components": [
            {
              "internalType": "string",
              "name": "name",
              "type": "string"
            },
            {
              "internalType": "uint64",
              "name": "phone",
              "type": "uint64"
            },
            {
              "internalType": "string",
              "name": "mail",
              "type": "string"
            },
            {
              "internalType": "string",
              "name": "hospitalAddress",
              "type": "string"
            }
          ],
          "internalType": "struct register.hospitalDetails",
          "name": "",
          "type": "tuple"
        }
      ],
      "stateMutability": "view",
      "type": "function",
      "constant": true
    }
  ],
  "bytecode": "0x608060405273dff6a078eac1279823ed8189bb2ccd137bfc12e06000806101000a81548173ffffffffffffffffffffffffffffffffffffffff021916908373ffffffffffffffffffffffffffffffffffffffff16021790555034801561006457600080fd5b5061191d806100746000396000f3fe608060405234801561001057600080fd5b50600436106100885760003560e01c8063c23697a81161005b578063c23697a814610127578063e319f51d14610157578063e36f4d6514610173578063f0d2637b1461018f57610088565b80632bc8504a1461008d5780635f5954a0146100bd578063924727dc146100db57806394016d3d1461010b575b600080fd5b6100a760048036038101906100a29190610ed7565b6101ab565b6040516100b49190611028565b60405180910390f35b6100c56103ec565b6040516100d291906111ce565b60405180910390f35b6100f560048036038101906100f09190610ed7565b61050c565b6040516101029190611261565b60405180910390f35b610125600480360381019061012091906113e4565b61074d565b005b610141600480360381019061013c9190610ed7565b610832565b60405161014e91906114fd565b60405180910390f35b610171600480360381019061016c91906113e4565b610a99565b005b61018d600480360381019061018891906113e4565b610b45565b005b6101a960048036038101906101a491906113e4565b610bf1565b005b6101b3610d27565b600160008373ffffffffffffffffffffffffffffffffffffffff1673ffffffffffffffffffffffffffffffffffffffff16815260200190815260200160002060405180608001604052908160008201805461020d9061154e565b80601f01602080910402602001604051908101604052809291908181526020018280546102399061154e565b80156102865780601f1061025b57610100808354040283529160200191610286565b820191906000526020600020905b81548152906001019060200180831161026957829003601f168201915b505050505081526020016001820160009054906101000a900467ffffffffffffffff1667ffffffffffffffff1667ffffffffffffffff1681526020016002820180546102d19061154e565b80601f01602080910402602001604051908101604052809291908181526020018280546102fd9061154e565b801561034a5780601f1061031f5761010080835404028352916020019161034a565b820191906000526020600020905b81548152906001019060200180831161032d57829003601f168201915b505050505081526020016003820180546103639061154e565b80601f016020809104026020016040519081016040528092919081815260200182805461038f9061154e565b80156103dc5780601f106103b1576101008083540402835291602001916103dc565b820191906000526020600020905b8154815290600101906020018083116103bf57829003601f168201915b5050505050815250509050919050565b60606003805480602002602001604051908101604052809291908181526020016000905b8282101561050357838290600052602060002001805480602002602001604051908101604052809291908181526020016000905b828210156104f05783829060005260206000200180546104639061154e565b80601f016020809104026020016040519081016040528092919081815260200182805461048f9061154e565b80156104dc5780601f106104b1576101008083540402835291602001916104dc565b820191906000526020600020905b8154815290600101906020018083116104bf57829003601f168201915b505050505081526020019060010190610444565b5050505081526020019060010190610410565b50505050905090565b610514610d59565b600260008373ffffffffffffffffffffffffffffffffffffffff1673ffffffffffffffffffffffffffffffffffffffff16815260200190815260200160002060405180608001604052908160008201805461056e9061154e565b80601f016020809104026020016040519081016040528092919081815260200182805461059a9061154e565b80156105e75780601f106105bc576101008083540402835291602001916105e7565b820191906000526020600020905b8154815290600101906020018083116105ca57829003601f168201915b505050505081526020016001820160009054906101000a900467ffffffffffffffff1667ffffffffffffffff1667ffffffffffffffff1681526020016002820180546106329061154e565b80601f016020809104026020016040519081016040528092919081815260200182805461065e9061154e565b80156106ab5780601f10610680576101008083540402835291602001916106ab565b820191906000526020600020905b81548152906001019060200180831161068e57829003601f168201915b505050505081526020016003820180546106c49061154e565b80601f01602080910402602001604051908101604052809291908181526020018280546106f09061154e565b801561073d5780601f106107125761010080835404028352916020019161073d565b820191906000526020600020905b81548152906001019060200180831161072057829003601f168201915b5050505050815250509050919050565b60405180608001604052808581526020018467ffffffffffffffff16815260200183815260200182815250600160008773ffffffffffffffffffffffffffffffffffffffff1673ffffffffffffffffffffffffffffffffffffffff16815260200190815260200160002060008201518160000190816107cc9190611735565b5060208201518160010160006101000a81548167ffffffffffffffff021916908367ffffffffffffffff16021790555060408201518160020190816108119190611735565b5060608201518160030190816108279190611735565b509050505050505050565b606060006040518060400160405280600481526020017f6e6f6e6500000000000000000000000000000000000000000000000000000000815250905060008054906101000a900473ffffffffffffffffffffffffffffffffffffffff1673ffffffffffffffffffffffffffffffffffffffff168373ffffffffffffffffffffffffffffffffffffffff16036108fa576040518060400160405280600581526020017f61646d696e00000000000000000000000000000000000000000000000000000081525090505b60405160200161090990611838565b60405160208183030381529060405280519060200120600160008573ffffffffffffffffffffffffffffffffffffffff1673ffffffffffffffffffffffffffffffffffffffff16815260200190815260200160002060000160405160200161097191906118d0565b60405160208183030381529060405280519060200120146109c5576040518060400160405280600781526020017f70617469656e740000000000000000000000000000000000000000000000000081525090505b6040516020016109d490611838565b60405160208183030381529060405280519060200120600260008573ffffffffffffffffffffffffffffffffffffffff1673ffffffffffffffffffffffffffffffffffffffff168152602001908152602001600020600001604051602001610a3c91906118d0565b6040516020818303038152906040528051906020012014610a90576040518060400160405280600881526020017f686f73706974616c00000000000000000000000000000000000000000000000081525090505b80915050919050565b6000600160008773ffffffffffffffffffffffffffffffffffffffff1673ffffffffffffffffffffffffffffffffffffffff168152602001908152602001600020905084816000019081610aed9190611735565b50838160010160006101000a81548167ffffffffffffffff021916908367ffffffffffffffff16021790555082816002019081610b2a9190611735565b5081816003019081610b3c9190611735565b50505050505050565b6000600260008773ffffffffffffffffffffffffffffffffffffffff1673ffffffffffffffffffffffffffffffffffffffff168152602001908152602001600020905084816000019081610b999190611735565b50838160010160006101000a81548167ffffffffffffffff021916908367ffffffffffffffff16021790555082816002019081610bd69190611735565b5081816003019081610be89190611735565b50505050505050565b60405180608001604052808581526020018467ffffffffffffffff16815260200183815260200182815250600260008773ffffffffffffffffffffffffffffffffffffffff1673ffffffffffffffffffffffffffffffffffffffff1681526020019081526020016000206000820151816000019081610c709190611735565b5060208201518160010160006101000a81548167ffffffffffffffff021916908367ffffffffffffffff1602179055506040820151816002019081610cb59190611735565b506060820151816003019081610ccb9190611735565b50905050600360405180606001604052808681526020018481526020018381525090806001815401808255809150506001900390600052602060002001600090919091909150906003610d1f929190610d8b565b505050505050565b604051806080016040528060608152602001600067ffffffffffffffff16815260200160608152602001606081525090565b604051806080016040528060608152602001600067ffffffffffffffff16815260200160608152602001606081525090565b828054828255906000526020600020908101928215610dd3579160200282015b82811115610dd2578251829081610dc29190611735565b5091602001919060010190610dab565b5b509050610de09190610de4565b5090565b5b80821115610e045760008181610dfb9190610e08565b50600101610de5565b5090565b508054610e149061154e565b6000825580601f10610e265750610e45565b601f016020900490600052602060002090810190610e449190610e48565b5b50565b5b80821115610e61576000816000905550600101610e49565b5090565b6000604051905090565b600080fd5b600080fd5b600073ffffffffffffffffffffffffffffffffffffffff82169050919050565b6000610ea482610e79565b9050919050565b610eb481610e99565b8114610ebf57600080fd5b50565b600081359050610ed181610eab565b92915050565b600060208284031215610eed57610eec610e6f565b5b6000610efb84828501610ec2565b91505092915050565b600081519050919050565b600082825260208201905092915050565b60005b83811015610f3e578082015181840152602081019050610f23565b60008484015250505050565b6000601f19601f8301169050919050565b6000610f6682610f04565b610f708185610f0f565b9350610f80818560208601610f20565b610f8981610f4a565b840191505092915050565b600067ffffffffffffffff82169050919050565b610fb181610f94565b82525050565b60006080830160008301518482036000860152610fd48282610f5b565b9150506020830151610fe96020860182610fa8565b50604083015184820360408601526110018282610f5b565b9150506060830151848203606086015261101b8282610f5b565b9150508091505092915050565b600060208201905081810360008301526110428184610fb7565b905092915050565b600081519050919050565b600082825260208201905092915050565b6000819050602082019050919050565b600081519050919050565b600082825260208201905092915050565b6000819050602082019050919050565b60006110ae8383610f5b565b905092915050565b6000602082019050919050565b60006110ce82611076565b6110d88185611081565b9350836020820285016110ea85611092565b8060005b85811015611126578484038952815161110785826110a2565b9450611112836110b6565b925060208a019950506001810190506110ee565b50829750879550505050505092915050565b600061114483836110c3565b905092915050565b6000602082019050919050565b60006111648261104a565b61116e8185611055565b93508360208202850161118085611066565b8060005b858110156111bc578484038952815161119d8582611138565b94506111a88361114c565b925060208a01995050600181019050611184565b50829750879550505050505092915050565b600060208201905081810360008301526111e88184611159565b905092915050565b6000608083016000830151848203600086015261120d8282610f5b565b91505060208301516112226020860182610fa8565b506040830151848203604086015261123a8282610f5b565b915050606083015184820360608601526112548282610f5b565b9150508091505092915050565b6000602082019050818103600083015261127b81846111f0565b905092915050565b600080fd5b600080fd5b7f4e487b7100000000000000000000000000000000000000000000000000000000600052604160045260246000fd5b6112c582610f4a565b810181811067ffffffffffffffff821117156112e4576112e361128d565b5b80604052505050565b60006112f7610e65565b905061130382826112bc565b919050565b600067ffffffffffffffff8211156113235761132261128d565b5b61132c82610f4a565b9050602081019050919050565b82818337600083830152505050565b600061135b61135684611308565b6112ed565b90508281526020810184848401111561137757611376611288565b5b611382848285611339565b509392505050565b600082601f83011261139f5761139e611283565b5b81356113af848260208601611348565b91505092915050565b6113c181610f94565b81146113cc57600080fd5b50565b6000813590506113de816113b8565b92915050565b600080600080600060a08688031215611400576113ff610e6f565b5b600061140e88828901610ec2565b955050602086013567ffffffffffffffff81111561142f5761142e610e74565b5b61143b8882890161138a565b945050604061144c888289016113cf565b935050606086013567ffffffffffffffff81111561146d5761146c610e74565b5b6114798882890161138a565b925050608086013567ffffffffffffffff81111561149a57611499610e74565b5b6114a68882890161138a565b9150509295509295909350565b600082825260208201905092915050565b60006114cf82610f04565b6114d981856114b3565b93506114e9818560208601610f20565b6114f281610f4a565b840191505092915050565b6000602082019050818103600083015261151781846114c4565b905092915050565b7f4e487b7100000000000000000000000000000000000000000000000000000000600052602260045260246000fd5b6000600282049050600182168061156657607f821691505b6020821081036115795761157861151f565b5b50919050565b60008190508160005260206000209050919050565b60006020601f8301049050919050565b600082821b905092915050565b6000600883026115e17fffffffffffffffffffffffffffffffffffffffffffffffffffffffffffffffff826115a4565b6115eb86836115a4565b95508019841693508086168417925050509392505050565b6000819050919050565b6000819050919050565b600061163261162d61162884611603565b61160d565b611603565b9050919050565b6000819050919050565b61164c83611617565b61166061165882611639565b8484546115b1565b825550505050565b600090565b611675611668565b611680818484611643565b505050565b5b818110156116a45761169960008261166d565b600181019050611686565b5050565b601f8211156116e9576116ba8161157f565b6116c384611594565b810160208510156116d2578190505b6116e66116de85611594565b830182611685565b50505b505050565b600082821c905092915050565b600061170c600019846008026116ee565b1980831691505092915050565b600061172583836116fb565b9150826002028217905092915050565b61173e82610f04565b67ffffffffffffffff8111156117575761175661128d565b5b611761825461154e565b61176c8282856116a8565b600060209050601f83116001811461179f576000841561178d578287015190505b6117978582611719565b8655506117ff565b601f1984166117ad8661157f565b60005b828110156117d5578489015182556001820191506020850194506020810190506117b0565b868310156117f257848901516117ee601f8916826116fb565b8355505b6001600288020188555050505b505050505050565b600081905092915050565b50565b6000611822600083611807565b915061182d82611812565b600082019050919050565b600061184382611815565b9150819050919050565b6000815461185a8161154e565b6118648186611807565b9450600182166000811461187f5760018114611894576118c7565b60ff19831686528115158202860193506118c7565b61189d8561157f565b60005b838110156118bf578154818901526001820191506020810190506118a0565b838801955050505b50505092915050565b60006118dc828461184d565b91508190509291505056fea26469706673582212206224a4952725292070d308ef82b6af60e2ae1572d84fa8f5deff924bffe7b06664736f6c63430008110033",
  "immutableReferences": {},
  "source": "// SPDX-License-Identifier: GPL-3.0\npragma solidity >=0.8.0 <=0.9.0;\n\ncontract register{\n\n    struct patientDetails{\n        string name;\n        uint64 phone;\n        string mail;\n        string residentAddress;\n    }\n\n    struct hospitalDetails{\n        string name;\n        uint64 phone;\n        string mail;\n        string hospitalAddress;\n    }\n\n    address admin = 0xDfF6A078Eac1279823eD8189bB2ccd137bFc12e0;\n    mapping (address => patientDetails) patient;\n    mapping (address => hospitalDetails) hospital;\n    string[][] hospitals;\n\n    function registerPatient(address _publicAddress, string memory _name, uint64 _phone, string memory _mail, string memory _residentAddress) public{\n        patient[_publicAddress] = patientDetails(_name, _phone, _mail, _residentAddress);\n    }\n\n    function registerhospital(address _publicAddress,  string memory _name, uint64 _phone, string memory _mail, string memory _hospitalAddress) public{\n        hospital[_publicAddress] = hospitalDetails(_name, _phone, _mail, _hospitalAddress);\n        hospitals.push([_name, _mail, _hospitalAddress]);\n    }\n\n    function updatePatient(address _publicAddress, string memory _name, uint64 _phone, string memory _mail, string memory _residentAddress) public {\n        patientDetails storage pd = patient[_publicAddress];\n        pd.name = _name;\n        pd.phone = _phone;\n        pd.mail = _mail;\n        pd.residentAddress = _residentAddress;\n    }\n\n     function updatehospital(address _publicAddress,  string memory _name, uint64 _phone, string memory _mail, string memory _hospitalAddress) public{\n        hospitalDetails storage dd = hospital[_publicAddress];\n        dd.name = _name;\n        dd.phone = _phone;\n        dd.mail = _mail;\n        dd.hospitalAddress = _hospitalAddress;\n    }\n\n    function check(address _publicAddress) public view returns(string memory)\n    {\n        string memory user = \"none\";\n        if(_publicAddress == admin)\n        {\n            user = \"admin\";\n        }\n        if(!(keccak256(abi.encodePacked((patient[_publicAddress].name))) == keccak256(abi.encodePacked((\"\")))))\n        {\n            user = \"patient\";\n        }\n        if(!(keccak256(abi.encodePacked((hospital[_publicAddress].name))) == keccak256(abi.encodePacked((\"\")))))\n        {\n            user = \"hospital\";\n        }\n        return user;\n    }\n\n    function getAllHospital() public view returns(string[][] memory)\n    {\n        return hospitals;\n    }\n\n    function getPatientDetail(address _publicAddress) public view returns(patientDetails memory)\n    {\n        return patient[_publicAddress];\n    }\n\n     function getHospitalDetail(address _publicAddress) public view returns(hospitalDetails memory)\n    {\n        return hospital[_publicAddress];\n    }\n}",
  "sourcePath": "/Users/yashsavani/Desktop/blockchainTrial/Backend/contracts/register.sol",
  "compiler": {
    "name": "solc",
    "version": "0.8.17+commit.8df45f5f.Emscripten.clang"
  },
  "schemaVersion": "3.4.12",
  "updatedAt": "2023-03-10T14:09:38.475Z",
  "networkType": "ethereum",
  "devdoc": {
    "kind": "dev",
    "methods": {},
    "version": 1
  },
  "userdoc": {
    "kind": "user",
    "methods": {},
    "version": 1
  }
}